{
	"erc20/contracts/GameContract.sol": {
		"Game": {
			"abi": [
				{
					"constant": true,
					"inputs": [],
					"name": "name",
					"outputs": [
						{
							"name": "",
							"type": "string"
						}
					],
					"payable": false,
					"stateMutability": "view",
					"type": "function"
				},
				{
					"constant": false,
					"inputs": [
						{
							"name": "_spender",
							"type": "address"
						},
						{
							"name": "_value",
							"type": "uint256"
						}
					],
					"name": "approve",
					"outputs": [
						{
							"name": "",
							"type": "bool"
						}
					],
					"payable": false,
					"stateMutability": "nonpayable",
					"type": "function"
				},
				{
					"constant": true,
					"inputs": [],
					"name": "totalSupply",
					"outputs": [
						{
							"name": "",
							"type": "uint256"
						}
					],
					"payable": false,
					"stateMutability": "view",
					"type": "function"
				},
				{
					"constant": false,
					"inputs": [
						{
							"name": "_from",
							"type": "address"
						},
						{
							"name": "_to",
							"type": "address"
						},
						{
							"name": "_value",
							"type": "uint256"
						}
					],
					"name": "transferFrom",
					"outputs": [
						{
							"name": "",
							"type": "bool"
						}
					],
					"payable": false,
					"stateMutability": "nonpayable",
					"type": "function"
				},
				{
					"constant": true,
					"inputs": [],
					"name": "INITIAL_SUPPLY",
					"outputs": [
						{
							"name": "",
							"type": "uint256"
						}
					],
					"payable": false,
					"stateMutability": "view",
					"type": "function"
				},
				{
					"constant": true,
					"inputs": [],
					"name": "decimals",
					"outputs": [
						{
							"name": "",
							"type": "uint256"
						}
					],
					"payable": false,
					"stateMutability": "view",
					"type": "function"
				},
				{
					"constant": false,
					"inputs": [
						{
							"name": "_spender",
							"type": "address"
						},
						{
							"name": "_subtractedValue",
							"type": "uint256"
						}
					],
					"name": "decreaseApproval",
					"outputs": [
						{
							"name": "",
							"type": "bool"
						}
					],
					"payable": false,
					"stateMutability": "nonpayable",
					"type": "function"
				},
				{
					"constant": true,
					"inputs": [
						{
							"name": "_owner",
							"type": "address"
						}
					],
					"name": "balanceOf",
					"outputs": [
						{
							"name": "balance",
							"type": "uint256"
						}
					],
					"payable": false,
					"stateMutability": "view",
					"type": "function"
				},
				{
					"constant": true,
					"inputs": [],
					"name": "symbol",
					"outputs": [
						{
							"name": "",
							"type": "string"
						}
					],
					"payable": false,
					"stateMutability": "view",
					"type": "function"
				},
				{
					"constant": false,
					"inputs": [
						{
							"name": "_to",
							"type": "address"
						},
						{
							"name": "_value",
							"type": "uint256"
						}
					],
					"name": "transfer",
					"outputs": [
						{
							"name": "",
							"type": "bool"
						}
					],
					"payable": false,
					"stateMutability": "nonpayable",
					"type": "function"
				},
				{
					"constant": false,
					"inputs": [
						{
							"name": "_spender",
							"type": "address"
						},
						{
							"name": "_addedValue",
							"type": "uint256"
						}
					],
					"name": "increaseApproval",
					"outputs": [
						{
							"name": "",
							"type": "bool"
						}
					],
					"payable": false,
					"stateMutability": "nonpayable",
					"type": "function"
				},
				{
					"constant": true,
					"inputs": [
						{
							"name": "_owner",
							"type": "address"
						},
						{
							"name": "_spender",
							"type": "address"
						}
					],
					"name": "allowance",
					"outputs": [
						{
							"name": "",
							"type": "uint256"
						}
					],
					"payable": false,
					"stateMutability": "view",
					"type": "function"
				},
				{
					"constant": false,
					"inputs": [],
					"name": "PlayGame",
					"outputs": [],
					"payable": false,
					"stateMutability": "nonpayable",
					"type": "function"
				},
				{
					"anonymous": false,
					"inputs": [
						{
							"indexed": false,
							"name": "winner",
							"type": "address"
						},
						{
							"indexed": false,
							"name": "amount",
							"type": "uint256"
						},
						{
							"indexed": false,
							"name": "win",
							"type": "bool"
						}
					],
					"name": "Winner",
					"type": "event"
				},
				{
					"anonymous": false,
					"inputs": [
						{
							"indexed": true,
							"name": "owner",
							"type": "address"
						},
						{
							"indexed": true,
							"name": "spender",
							"type": "address"
						},
						{
							"indexed": false,
							"name": "value",
							"type": "uint256"
						}
					],
					"name": "Approval",
					"type": "event"
				},
				{
					"anonymous": false,
					"inputs": [
						{
							"indexed": true,
							"name": "from",
							"type": "address"
						},
						{
							"indexed": true,
							"name": "to",
							"type": "address"
						},
						{
							"indexed": false,
							"name": "value",
							"type": "uint256"
						}
					],
					"name": "Transfer",
					"type": "event"
				}
			],
			"devdoc": {
				"methods": {
					"allowance(address,address)": {
						"details": "Function to check the amount of tokens that an owner allowed to a spender.\r",
						"params": {
							"_owner": "address The address which owns the funds.\r",
							"_spender": "address The address which will spend the funds.\r"
						},
						"return": "A uint256 specifying the amount of tokens still available for the spender.\r"
					},
					"approve(address,uint256)": {
						"details": "Approve the passed address to spend the specified amount of tokens on behalf of msg.sender.\r    * Beware that changing an allowance with this method brings the risk that someone may use both the old\r and the new allowance by unfortunate transaction ordering. One possible solution to mitigate this\r race condition is to first reduce the spender's allowance to 0 and set the desired value afterwards:\r https://github.com/ethereum/EIPs/issues/20#issuecomment-263524729\r",
						"params": {
							"_spender": "The address which will spend the funds.\r",
							"_value": "The amount of tokens to be spent.\r"
						}
					},
					"balanceOf(address)": {
						"details": "Gets the balance of the specified address.\r",
						"params": {
							"_owner": "The address to query the the balance of.\r"
						},
						"return": "An uint256 representing the amount owned by the passed address.\r"
					},
					"decreaseApproval(address,uint256)": {
						"details": "Decrease the amount of tokens that an owner allowed to a spender.\r    * approve should be called when allowed[_spender] == 0. To decrement\r allowed value is better to use this function to avoid 2 calls (and wait until\r the first transaction is mined)\r From MonolithDAO Token.sol\r",
						"params": {
							"_spender": "The address which will spend the funds.\r",
							"_subtractedValue": "The amount of tokens to decrease the allowance by.\r"
						}
					},
					"increaseApproval(address,uint256)": {
						"details": "Increase the amount of tokens that an owner allowed to a spender.\r    * approve should be called when allowed[_spender] == 0. To increment\r allowed value is better to use this function to avoid 2 calls (and wait until\r the first transaction is mined)\r From MonolithDAO Token.sol\r",
						"params": {
							"_addedValue": "The amount of tokens to increase the allowance by.\r",
							"_spender": "The address which will spend the funds.\r"
						}
					},
					"transfer(address,uint256)": {
						"details": "transfer token for a specified address\r",
						"params": {
							"_to": "The address to transfer to.\r",
							"_value": "The amount to be transferred.\r"
						}
					},
					"transferFrom(address,address,uint256)": {
						"details": "Transfer tokens from one address to another\r",
						"params": {
							"_from": "address The address which you want to send tokens from\r",
							"_to": "address The address which you want to transfer to\r",
							"_value": "uint256 the amount of tokens to be transferred\r"
						}
					}
				}
			},
			"evm": {
				"assembly": "    /* \"erc20/contracts/GameContract.sol\":64:667  contract Game is ExampleToken{\r... */\n  mstore(0x40, 0x80)\n    /* \"erc20/contracts/ExampleToken.sol\":103:138  string public name = \"ExampleToken\" */\n  0x40\n  dup1\n  mload\n  swap1\n  dup2\n  add\n  0x40\n  mstore\n  dup1\n  0xc\n  dup2\n  mstore\n  0x20\n  add\n  0x4578616d706c65546f6b656e0000000000000000000000000000000000000000\n  dup2\n  mstore\n  pop\n  0x3\n  swap1\n  dup1\n  mload\n  swap1\n  0x20\n  add\n  swap1\n  tag_1\n  swap3\n  swap2\n  swap1\n  jump\t// in(tag_2)\ntag_1:\n  pop\n    /* \"erc20/contracts/ExampleToken.sol\":144:172  string public symbol = \"EXT\" */\n  0x40\n  dup1\n  mload\n  swap1\n  dup2\n  add\n  0x40\n  mstore\n  dup1\n  0x3\n  dup2\n  mstore\n  0x20\n  add\n  0x4558540000000000000000000000000000000000000000000000000000000000\n  dup2\n  mstore\n  pop\n  0x4\n  swap1\n  dup1\n  mload\n  swap1\n  0x20\n  add\n  swap1\n  tag_3\n  swap3\n  swap2\n  swap1\n  jump\t// in(tag_2)\ntag_3:\n  pop\n    /* \"erc20/contracts/ExampleToken.sol\":200:202  18 */\n  0x12\n    /* \"erc20/contracts/ExampleToken.sol\":177:202  uint public decimals = 18 */\n  0x5\n  sstore\n    /* \"erc20/contracts/ExampleToken.sol\":251:259  decimals */\n  sload(0x5)\n    /* \"erc20/contracts/ExampleToken.sol\":245:247  10 */\n  0xa\n    /* \"erc20/contracts/ExampleToken.sol\":245:259  10 ** decimals */\n  exp\n    /* \"erc20/contracts/ExampleToken.sol\":236:241  10000 */\n  0x2710\n    /* \"erc20/contracts/ExampleToken.sol\":236:260  10000 * (10 ** decimals) */\n  mul\n    /* \"erc20/contracts/ExampleToken.sol\":207:260  uint public INITIAL_SUPPLY = 10000 * (10 ** decimals) */\n  0x6\n  sstore\n    /* \"erc20/contracts/ExampleToken.sol\":340:354  INITIAL_SUPPLY */\n  sload(0x6)\n    /* \"erc20/contracts/ExampleToken.sol\":326:337  totalSupply */\n  0x7\n    /* \"erc20/contracts/ExampleToken.sol\":326:354  totalSupply = INITIAL_SUPPLY */\n  dup2\n  swap1\n  sstore\n  pop\n    /* \"erc20/contracts/ExampleToken.sol\":384:398  INITIAL_SUPPLY */\n  sload(0x6)\n    /* \"erc20/contracts/ExampleToken.sol\":361:369  balances */\n  0x0\n    /* \"erc20/contracts/ExampleToken.sol\":361:381  balances[msg.sender] */\n  dup1\n    /* \"erc20/contracts/ExampleToken.sol\":370:380  msg.sender */\n  caller\n    /* \"erc20/contracts/ExampleToken.sol\":361:381  balances[msg.sender] */\n  0xffffffffffffffffffffffffffffffffffffffff\n  and\n  0xffffffffffffffffffffffffffffffffffffffff\n  and\n  dup2\n  mstore\n  0x20\n  add\n  swap1\n  dup2\n  mstore\n  0x20\n  add\n  0x0\n  keccak256\n    /* \"erc20/contracts/ExampleToken.sol\":361:398  balances[msg.sender] = INITIAL_SUPPLY */\n  dup2\n  swap1\n  sstore\n  pop\n    /* \"erc20/contracts/GameContract.sol\":64:667  contract Game is ExampleToken{\r... */\n  jump(tag_6)\ntag_2:\n  dup3\n  dup1\n  sload\n  0x1\n  dup2\n  0x1\n  and\n  iszero\n  0x100\n  mul\n  sub\n  and\n  0x2\n  swap1\n  div\n  swap1\n  0x0\n  mstore\n  keccak256(0x0, 0x20)\n  swap1\n  0x1f\n  add\n  0x20\n  swap1\n  div\n  dup2\n  add\n  swap3\n  dup3\n  0x1f\n  lt\n  tag_8\n  jumpi\n  dup1\n  mload\n  not(0xff)\n  and\n  dup4\n  dup1\n  add\n  or\n  dup6\n  sstore\n  jump(tag_7)\ntag_8:\n  dup3\n  dup1\n  add\n  0x1\n  add\n  dup6\n  sstore\n  dup3\n  iszero\n  tag_7\n  jumpi\n  swap2\n  dup3\n  add\ntag_9:\n  dup3\n  dup2\n  gt\n  iszero\n  tag_10\n  jumpi\n  dup3\n  mload\n  dup3\n  sstore\n  swap2\n  0x20\n  add\n  swap2\n  swap1\n  0x1\n  add\n  swap1\n  jump(tag_9)\ntag_10:\ntag_7:\n  pop\n  swap1\n  pop\n  tag_11\n  swap2\n  swap1\n  jump\t// in(tag_12)\ntag_11:\n  pop\n  swap1\n  jump\t// out\ntag_12:\n  tag_13\n  swap2\n  swap1\ntag_14:\n  dup1\n  dup3\n  gt\n  iszero\n  tag_15\n  jumpi\n  0x0\n  dup2\n  0x0\n  swap1\n  sstore\n  pop\n  0x1\n  add\n  jump(tag_14)\ntag_15:\n  pop\n  swap1\n  jump\ntag_13:\n  swap1\n  jump\t// out\ntag_6:\n  dataSize(sub_0)\n  dup1\n  dataOffset(sub_0)\n  0x0\n  codecopy\n  0x0\n  return\nstop\n\nsub_0: assembly {\n        /* \"erc20/contracts/GameContract.sol\":64:667  contract Game is ExampleToken{\r... */\n      mstore(0x40, 0x80)\n      jumpi(tag_1, lt(calldatasize, 0x4))\n      calldataload(0x0)\n      0x100000000000000000000000000000000000000000000000000000000\n      swap1\n      div\n      0xffffffff\n      and\n      dup1\n      0x6fdde03\n      eq\n      tag_2\n      jumpi\n      dup1\n      0x95ea7b3\n      eq\n      tag_3\n      jumpi\n      dup1\n      0x18160ddd\n      eq\n      tag_4\n      jumpi\n      dup1\n      0x23b872dd\n      eq\n      tag_5\n      jumpi\n      dup1\n      0x2ff2e9dc\n      eq\n      tag_6\n      jumpi\n      dup1\n      0x313ce567\n      eq\n      tag_7\n      jumpi\n      dup1\n      0x66188463\n      eq\n      tag_8\n      jumpi\n      dup1\n      0x70a08231\n      eq\n      tag_9\n      jumpi\n      dup1\n      0x95d89b41\n      eq\n      tag_10\n      jumpi\n      dup1\n      0xa9059cbb\n      eq\n      tag_11\n      jumpi\n      dup1\n      0xd73dd623\n      eq\n      tag_12\n      jumpi\n      dup1\n      0xdd62ed3e\n      eq\n      tag_13\n      jumpi\n      dup1\n      0xff776b9c\n      eq\n      tag_14\n      jumpi\n    tag_1:\n      0x0\n      dup1\n      revert\n        /* \"erc20/contracts/ExampleToken.sol\":103:138  string public name = \"ExampleToken\" */\n    tag_2:\n      callvalue\n        /* \"--CODEGEN--\":8:17   */\n      dup1\n        /* \"--CODEGEN--\":5:7   */\n      iszero\n      tag_15\n      jumpi\n        /* \"--CODEGEN--\":30:31   */\n      0x0\n        /* \"--CODEGEN--\":27:28   */\n      dup1\n        /* \"--CODEGEN--\":20:32   */\n      revert\n        /* \"--CODEGEN--\":5:7   */\n    tag_15:\n        /* \"erc20/contracts/ExampleToken.sol\":103:138  string public name = \"ExampleToken\" */\n      pop\n      tag_16\n      jump(tag_17)\n    tag_16:\n      mload(0x40)\n      dup1\n      dup1\n      0x20\n      add\n      dup3\n      dup2\n      sub\n      dup3\n      mstore\n      dup4\n      dup2\n      dup2\n      mload\n      dup2\n      mstore\n      0x20\n      add\n      swap2\n      pop\n      dup1\n      mload\n      swap1\n      0x20\n      add\n      swap1\n      dup1\n      dup4\n      dup4\n        /* \"--CODEGEN--\":23:24   */\n      0x0\n        /* \"--CODEGEN--\":8:108   */\n    tag_18:\n        /* \"--CODEGEN--\":33:36   */\n      dup4\n        /* \"--CODEGEN--\":30:31   */\n      dup2\n        /* \"--CODEGEN--\":27:37   */\n      lt\n        /* \"--CODEGEN--\":8:108   */\n      iszero\n      tag_19\n      jumpi\n        /* \"--CODEGEN--\":99:100   */\n      dup1\n        /* \"--CODEGEN--\":94:97   */\n      dup3\n        /* \"--CODEGEN--\":90:101   */\n      add\n        /* \"--CODEGEN--\":84:102   */\n      mload\n        /* \"--CODEGEN--\":80:81   */\n      dup2\n        /* \"--CODEGEN--\":75:78   */\n      dup5\n        /* \"--CODEGEN--\":71:82   */\n      add\n        /* \"--CODEGEN--\":64:103   */\n      mstore\n        /* \"--CODEGEN--\":52:54   */\n      0x20\n        /* \"--CODEGEN--\":49:50   */\n      dup2\n        /* \"--CODEGEN--\":45:55   */\n      add\n        /* \"--CODEGEN--\":40:55   */\n      swap1\n      pop\n        /* \"--CODEGEN--\":8:108   */\n      jump(tag_18)\n    tag_19:\n        /* \"--CODEGEN--\":12:26   */\n      pop\n        /* \"erc20/contracts/ExampleToken.sol\":103:138  string public name = \"ExampleToken\" */\n      pop\n      pop\n      pop\n      swap1\n      pop\n      swap1\n      dup2\n      add\n      swap1\n      0x1f\n      and\n      dup1\n      iszero\n      tag_21\n      jumpi\n      dup1\n      dup3\n      sub\n      dup1\n      mload\n      0x1\n      dup4\n      0x20\n      sub\n      0x100\n      exp\n      sub\n      not\n      and\n      dup2\n      mstore\n      0x20\n      add\n      swap2\n      pop\n    tag_21:\n      pop\n      swap3\n      pop\n      pop\n      pop\n      mload(0x40)\n      dup1\n      swap2\n      sub\n      swap1\n      return\n        /* \"erc20/contracts/StandardToken.sol\":1844:2031  function approve(address _spender, uint256 _value) public returns (bool) {\r... */\n    tag_3:\n      callvalue\n        /* \"--CODEGEN--\":8:17   */\n      dup1\n        /* \"--CODEGEN--\":5:7   */\n      iszero\n      tag_22\n      jumpi\n        /* \"--CODEGEN--\":30:31   */\n      0x0\n        /* \"--CODEGEN--\":27:28   */\n      dup1\n        /* \"--CODEGEN--\":20:32   */\n      revert\n        /* \"--CODEGEN--\":5:7   */\n    tag_22:\n        /* \"erc20/contracts/StandardToken.sol\":1844:2031  function approve(address _spender, uint256 _value) public returns (bool) {\r... */\n      pop\n      tag_23\n      0x4\n      dup1\n      calldatasize\n      sub\n      dup2\n      add\n      swap1\n      dup1\n      dup1\n      calldataload\n      0xffffffffffffffffffffffffffffffffffffffff\n      and\n      swap1\n      0x20\n      add\n      swap1\n      swap3\n      swap2\n      swap1\n      dup1\n      calldataload\n      swap1\n      0x20\n      add\n      swap1\n      swap3\n      swap2\n      swap1\n      pop\n      pop\n      pop\n      jump(tag_24)\n    tag_23:\n      mload(0x40)\n      dup1\n      dup3\n      iszero\n      iszero\n      iszero\n      iszero\n      dup2\n      mstore\n      0x20\n      add\n      swap2\n      pop\n      pop\n      mload(0x40)\n      dup1\n      swap2\n      sub\n      swap1\n      return\n        /* \"erc20/contracts/ExampleToken.sol\":265:291  uint256 public totalSupply */\n    tag_4:\n      callvalue\n        /* \"--CODEGEN--\":8:17   */\n      dup1\n        /* \"--CODEGEN--\":5:7   */\n      iszero\n      tag_25\n      jumpi\n        /* \"--CODEGEN--\":30:31   */\n      0x0\n        /* \"--CODEGEN--\":27:28   */\n      dup1\n        /* \"--CODEGEN--\":20:32   */\n      revert\n        /* \"--CODEGEN--\":5:7   */\n    tag_25:\n        /* \"erc20/contracts/ExampleToken.sol\":265:291  uint256 public totalSupply */\n      pop\n      tag_26\n      jump(tag_27)\n    tag_26:\n      mload(0x40)\n      dup1\n      dup3\n      dup2\n      mstore\n      0x20\n      add\n      swap2\n      pop\n      pop\n      mload(0x40)\n      dup1\n      swap2\n      sub\n      swap1\n      return\n        /* \"erc20/contracts/StandardToken.sol\":760:1209  function transferFrom(address _from, address _to, uint256 _value) public returns (bool) {\r... */\n    tag_5:\n      callvalue\n        /* \"--CODEGEN--\":8:17   */\n      dup1\n        /* \"--CODEGEN--\":5:7   */\n      iszero\n      tag_28\n      jumpi\n        /* \"--CODEGEN--\":30:31   */\n      0x0\n        /* \"--CODEGEN--\":27:28   */\n      dup1\n        /* \"--CODEGEN--\":20:32   */\n      revert\n        /* \"--CODEGEN--\":5:7   */\n    tag_28:\n        /* \"erc20/contracts/StandardToken.sol\":760:1209  function transferFrom(address _from, address _to, uint256 _value) public returns (bool) {\r... */\n      pop\n      tag_29\n      0x4\n      dup1\n      calldatasize\n      sub\n      dup2\n      add\n      swap1\n      dup1\n      dup1\n      calldataload\n      0xffffffffffffffffffffffffffffffffffffffff\n      and\n      swap1\n      0x20\n      add\n      swap1\n      swap3\n      swap2\n      swap1\n      dup1\n      calldataload\n      0xffffffffffffffffffffffffffffffffffffffff\n      and\n      swap1\n      0x20\n      add\n      swap1\n      swap3\n      swap2\n      swap1\n      dup1\n      calldataload\n      swap1\n      0x20\n      add\n      swap1\n      swap3\n      swap2\n      swap1\n      pop\n      pop\n      pop\n      jump(tag_30)\n    tag_29:\n      mload(0x40)\n      dup1\n      dup3\n      iszero\n      iszero\n      iszero\n      iszero\n      dup2\n      mstore\n      0x20\n      add\n      swap2\n      pop\n      pop\n      mload(0x40)\n      dup1\n      swap2\n      sub\n      swap1\n      return\n        /* \"erc20/contracts/ExampleToken.sol\":207:260  uint public INITIAL_SUPPLY = 10000 * (10 ** decimals) */\n    tag_6:\n      callvalue\n        /* \"--CODEGEN--\":8:17   */\n      dup1\n        /* \"--CODEGEN--\":5:7   */\n      iszero\n      tag_31\n      jumpi\n        /* \"--CODEGEN--\":30:31   */\n      0x0\n        /* \"--CODEGEN--\":27:28   */\n      dup1\n        /* \"--CODEGEN--\":20:32   */\n      revert\n        /* \"--CODEGEN--\":5:7   */\n    tag_31:\n        /* \"erc20/contracts/ExampleToken.sol\":207:260  uint public INITIAL_SUPPLY = 10000 * (10 ** decimals) */\n      pop\n      tag_32\n      jump(tag_33)\n    tag_32:\n      mload(0x40)\n      dup1\n      dup3\n      dup2\n      mstore\n      0x20\n      add\n      swap2\n      pop\n      pop\n      mload(0x40)\n      dup1\n      swap2\n      sub\n      swap1\n      return\n        /* \"erc20/contracts/ExampleToken.sol\":177:202  uint public decimals = 18 */\n    tag_7:\n      callvalue\n        /* \"--CODEGEN--\":8:17   */\n      dup1\n        /* \"--CODEGEN--\":5:7   */\n      iszero\n      tag_34\n      jumpi\n        /* \"--CODEGEN--\":30:31   */\n      0x0\n        /* \"--CODEGEN--\":27:28   */\n      dup1\n        /* \"--CODEGEN--\":20:32   */\n      revert\n        /* \"--CODEGEN--\":5:7   */\n    tag_34:\n        /* \"erc20/contracts/ExampleToken.sol\":177:202  uint public decimals = 18 */\n      pop\n      tag_35\n      jump(tag_36)\n    tag_35:\n      mload(0x40)\n      dup1\n      dup3\n      dup2\n      mstore\n      0x20\n      add\n      swap2\n      pop\n      pop\n      mload(0x40)\n      dup1\n      swap2\n      sub\n      swap1\n      return\n        /* \"erc20/contracts/StandardToken.sol\":3690:4097  function decreaseApproval(address _spender, uint _subtractedValue) public returns (bool) {\r... */\n    tag_8:\n      callvalue\n        /* \"--CODEGEN--\":8:17   */\n      dup1\n        /* \"--CODEGEN--\":5:7   */\n      iszero\n      tag_37\n      jumpi\n        /* \"--CODEGEN--\":30:31   */\n      0x0\n        /* \"--CODEGEN--\":27:28   */\n      dup1\n        /* \"--CODEGEN--\":20:32   */\n      revert\n        /* \"--CODEGEN--\":5:7   */\n    tag_37:\n        /* \"erc20/contracts/StandardToken.sol\":3690:4097  function decreaseApproval(address _spender, uint _subtractedValue) public returns (bool) {\r... */\n      pop\n      tag_38\n      0x4\n      dup1\n      calldatasize\n      sub\n      dup2\n      add\n      swap1\n      dup1\n      dup1\n      calldataload\n      0xffffffffffffffffffffffffffffffffffffffff\n      and\n      swap1\n      0x20\n      add\n      swap1\n      swap3\n      swap2\n      swap1\n      dup1\n      calldataload\n      swap1\n      0x20\n      add\n      swap1\n      swap3\n      swap2\n      swap1\n      pop\n      pop\n      pop\n      jump(tag_39)\n    tag_38:\n      mload(0x40)\n      dup1\n      dup3\n      iszero\n      iszero\n      iszero\n      iszero\n      dup2\n      mstore\n      0x20\n      add\n      swap2\n      pop\n      pop\n      mload(0x40)\n      dup1\n      swap2\n      sub\n      swap1\n      return\n        /* \"erc20/contracts/BasicToken.sol\":1226:1335  function balanceOf(address _owner) public view returns (uint256 balance) {\r... */\n    tag_9:\n      callvalue\n        /* \"--CODEGEN--\":8:17   */\n      dup1\n        /* \"--CODEGEN--\":5:7   */\n      iszero\n      tag_40\n      jumpi\n        /* \"--CODEGEN--\":30:31   */\n      0x0\n        /* \"--CODEGEN--\":27:28   */\n      dup1\n        /* \"--CODEGEN--\":20:32   */\n      revert\n        /* \"--CODEGEN--\":5:7   */\n    tag_40:\n        /* \"erc20/contracts/BasicToken.sol\":1226:1335  function balanceOf(address _owner) public view returns (uint256 balance) {\r... */\n      pop\n      tag_41\n      0x4\n      dup1\n      calldatasize\n      sub\n      dup2\n      add\n      swap1\n      dup1\n      dup1\n      calldataload\n      0xffffffffffffffffffffffffffffffffffffffff\n      and\n      swap1\n      0x20\n      add\n      swap1\n      swap3\n      swap2\n      swap1\n      pop\n      pop\n      pop\n      jump(tag_42)\n    tag_41:\n      mload(0x40)\n      dup1\n      dup3\n      dup2\n      mstore\n      0x20\n      add\n      swap2\n      pop\n      pop\n      mload(0x40)\n      dup1\n      swap2\n      sub\n      swap1\n      return\n        /* \"erc20/contracts/ExampleToken.sol\":144:172  string public symbol = \"EXT\" */\n    tag_10:\n      callvalue\n        /* \"--CODEGEN--\":8:17   */\n      dup1\n        /* \"--CODEGEN--\":5:7   */\n      iszero\n      tag_43\n      jumpi\n        /* \"--CODEGEN--\":30:31   */\n      0x0\n        /* \"--CODEGEN--\":27:28   */\n      dup1\n        /* \"--CODEGEN--\":20:32   */\n      revert\n        /* \"--CODEGEN--\":5:7   */\n    tag_43:\n        /* \"erc20/contracts/ExampleToken.sol\":144:172  string public symbol = \"EXT\" */\n      pop\n      tag_44\n      jump(tag_45)\n    tag_44:\n      mload(0x40)\n      dup1\n      dup1\n      0x20\n      add\n      dup3\n      dup2\n      sub\n      dup3\n      mstore\n      dup4\n      dup2\n      dup2\n      mload\n      dup2\n      mstore\n      0x20\n      add\n      swap2\n      pop\n      dup1\n      mload\n      swap1\n      0x20\n      add\n      swap1\n      dup1\n      dup4\n      dup4\n        /* \"--CODEGEN--\":23:24   */\n      0x0\n        /* \"--CODEGEN--\":8:108   */\n    tag_46:\n        /* \"--CODEGEN--\":33:36   */\n      dup4\n        /* \"--CODEGEN--\":30:31   */\n      dup2\n        /* \"--CODEGEN--\":27:37   */\n      lt\n        /* \"--CODEGEN--\":8:108   */\n      iszero\n      tag_47\n      jumpi\n        /* \"--CODEGEN--\":99:100   */\n      dup1\n        /* \"--CODEGEN--\":94:97   */\n      dup3\n        /* \"--CODEGEN--\":90:101   */\n      add\n        /* \"--CODEGEN--\":84:102   */\n      mload\n        /* \"--CODEGEN--\":80:81   */\n      dup2\n        /* \"--CODEGEN--\":75:78   */\n      dup5\n        /* \"--CODEGEN--\":71:82   */\n      add\n        /* \"--CODEGEN--\":64:103   */\n      mstore\n        /* \"--CODEGEN--\":52:54   */\n      0x20\n        /* \"--CODEGEN--\":49:50   */\n      dup2\n        /* \"--CODEGEN--\":45:55   */\n      add\n        /* \"--CODEGEN--\":40:55   */\n      swap1\n      pop\n        /* \"--CODEGEN--\":8:108   */\n      jump(tag_46)\n    tag_47:\n        /* \"--CODEGEN--\":12:26   */\n      pop\n        /* \"erc20/contracts/ExampleToken.sol\":144:172  string public symbol = \"EXT\" */\n      pop\n      pop\n      pop\n      swap1\n      pop\n      swap1\n      dup2\n      add\n      swap1\n      0x1f\n      and\n      dup1\n      iszero\n      tag_49\n      jumpi\n      dup1\n      dup3\n      sub\n      dup1\n      mload\n      0x1\n      dup4\n      0x20\n      sub\n      0x100\n      exp\n      sub\n      not\n      and\n      dup2\n      mstore\n      0x20\n      add\n      swap2\n      pop\n    tag_49:\n      pop\n      swap3\n      pop\n      pop\n      pop\n      mload(0x40)\n      dup1\n      swap2\n      sub\n      swap1\n      return\n        /* \"erc20/contracts/BasicToken.sol\":629:1017  function transfer(address _to, uint256 _value) public returns (bool) {\r... */\n    tag_11:\n      callvalue\n        /* \"--CODEGEN--\":8:17   */\n      dup1\n        /* \"--CODEGEN--\":5:7   */\n      iszero\n      tag_50\n      jumpi\n        /* \"--CODEGEN--\":30:31   */\n      0x0\n        /* \"--CODEGEN--\":27:28   */\n      dup1\n        /* \"--CODEGEN--\":20:32   */\n      revert\n        /* \"--CODEGEN--\":5:7   */\n    tag_50:\n        /* \"erc20/contracts/BasicToken.sol\":629:1017  function transfer(address _to, uint256 _value) public returns (bool) {\r... */\n      pop\n      tag_51\n      0x4\n      dup1\n      calldatasize\n      sub\n      dup2\n      add\n      swap1\n      dup1\n      dup1\n      calldataload\n      0xffffffffffffffffffffffffffffffffffffffff\n      and\n      swap1\n      0x20\n      add\n      swap1\n      swap3\n      swap2\n      swap1\n      dup1\n      calldataload\n      swap1\n      0x20\n      add\n      swap1\n      swap3\n      swap2\n      swap1\n      pop\n      pop\n      pop\n      jump(tag_52)\n    tag_51:\n      mload(0x40)\n      dup1\n      dup3\n      iszero\n      iszero\n      iszero\n      iszero\n      dup2\n      mstore\n      0x20\n      add\n      swap2\n      pop\n      pop\n      mload(0x40)\n      dup1\n      swap2\n      sub\n      swap1\n      return\n        /* \"erc20/contracts/StandardToken.sol\":2955:3216  function increaseApproval(address _spender, uint _addedValue) public returns (bool) {\r... */\n    tag_12:\n      callvalue\n        /* \"--CODEGEN--\":8:17   */\n      dup1\n        /* \"--CODEGEN--\":5:7   */\n      iszero\n      tag_53\n      jumpi\n        /* \"--CODEGEN--\":30:31   */\n      0x0\n        /* \"--CODEGEN--\":27:28   */\n      dup1\n        /* \"--CODEGEN--\":20:32   */\n      revert\n        /* \"--CODEGEN--\":5:7   */\n    tag_53:\n        /* \"erc20/contracts/StandardToken.sol\":2955:3216  function increaseApproval(address _spender, uint _addedValue) public returns (bool) {\r... */\n      pop\n      tag_54\n      0x4\n      dup1\n      calldatasize\n      sub\n      dup2\n      add\n      swap1\n      dup1\n      dup1\n      calldataload\n      0xffffffffffffffffffffffffffffffffffffffff\n      and\n      swap1\n      0x20\n      add\n      swap1\n      swap3\n      swap2\n      swap1\n      dup1\n      calldataload\n      swap1\n      0x20\n      add\n      swap1\n      swap3\n      swap2\n      swap1\n      pop\n      pop\n      pop\n      jump(tag_55)\n    tag_54:\n      mload(0x40)\n      dup1\n      dup3\n      iszero\n      iszero\n      iszero\n      iszero\n      dup2\n      mstore\n      0x20\n      add\n      swap2\n      pop\n      pop\n      mload(0x40)\n      dup1\n      swap2\n      sub\n      swap1\n      return\n        /* \"erc20/contracts/StandardToken.sol\":2358:2486  function allowance(address _owner, address _spender) public view returns (uint256) {\r... */\n    tag_13:\n      callvalue\n        /* \"--CODEGEN--\":8:17   */\n      dup1\n        /* \"--CODEGEN--\":5:7   */\n      iszero\n      tag_56\n      jumpi\n        /* \"--CODEGEN--\":30:31   */\n      0x0\n        /* \"--CODEGEN--\":27:28   */\n      dup1\n        /* \"--CODEGEN--\":20:32   */\n      revert\n        /* \"--CODEGEN--\":5:7   */\n    tag_56:\n        /* \"erc20/contracts/StandardToken.sol\":2358:2486  function allowance(address _owner, address _spender) public view returns (uint256) {\r... */\n      pop\n      tag_57\n      0x4\n      dup1\n      calldatasize\n      sub\n      dup2\n      add\n      swap1\n      dup1\n      dup1\n      calldataload\n      0xffffffffffffffffffffffffffffffffffffffff\n      and\n      swap1\n      0x20\n      add\n      swap1\n      swap3\n      swap2\n      swap1\n      dup1\n      calldataload\n      0xffffffffffffffffffffffffffffffffffffffff\n      and\n      swap1\n      0x20\n      add\n      swap1\n      swap3\n      swap2\n      swap1\n      pop\n      pop\n      pop\n      jump(tag_58)\n    tag_57:\n      mload(0x40)\n      dup1\n      dup3\n      dup2\n      mstore\n      0x20\n      add\n      swap2\n      pop\n      pop\n      mload(0x40)\n      dup1\n      swap2\n      sub\n      swap1\n      return\n        /* \"erc20/contracts/GameContract.sol\":461:664  function PlayGame() public{\r... */\n    tag_14:\n      callvalue\n        /* \"--CODEGEN--\":8:17   */\n      dup1\n        /* \"--CODEGEN--\":5:7   */\n      iszero\n      tag_59\n      jumpi\n        /* \"--CODEGEN--\":30:31   */\n      0x0\n        /* \"--CODEGEN--\":27:28   */\n      dup1\n        /* \"--CODEGEN--\":20:32   */\n      revert\n        /* \"--CODEGEN--\":5:7   */\n    tag_59:\n        /* \"erc20/contracts/GameContract.sol\":461:664  function PlayGame() public{\r... */\n      pop\n      tag_60\n      jump(tag_61)\n    tag_60:\n      stop\n        /* \"erc20/contracts/ExampleToken.sol\":103:138  string public name = \"ExampleToken\" */\n    tag_17:\n      0x3\n      dup1\n      sload\n      0x1\n      dup2\n      0x1\n      and\n      iszero\n      0x100\n      mul\n      sub\n      and\n      0x2\n      swap1\n      div\n      dup1\n      0x1f\n      add\n      0x20\n      dup1\n      swap2\n      div\n      mul\n      0x20\n      add\n      mload(0x40)\n      swap1\n      dup2\n      add\n      0x40\n      mstore\n      dup1\n      swap3\n      swap2\n      swap1\n      dup2\n      dup2\n      mstore\n      0x20\n      add\n      dup3\n      dup1\n      sload\n      0x1\n      dup2\n      0x1\n      and\n      iszero\n      0x100\n      mul\n      sub\n      and\n      0x2\n      swap1\n      div\n      dup1\n      iszero\n      tag_62\n      jumpi\n      dup1\n      0x1f\n      lt\n      tag_63\n      jumpi\n      0x100\n      dup1\n      dup4\n      sload\n      div\n      mul\n      dup4\n      mstore\n      swap2\n      0x20\n      add\n      swap2\n      jump(tag_62)\n    tag_63:\n      dup3\n      add\n      swap2\n      swap1\n      0x0\n      mstore\n      keccak256(0x0, 0x20)\n      swap1\n    tag_64:\n      dup2\n      sload\n      dup2\n      mstore\n      swap1\n      0x1\n      add\n      swap1\n      0x20\n      add\n      dup1\n      dup4\n      gt\n      tag_64\n      jumpi\n      dup3\n      swap1\n      sub\n      0x1f\n      and\n      dup3\n      add\n      swap2\n    tag_62:\n      pop\n      pop\n      pop\n      pop\n      pop\n      dup2\n      jump\t// out\n        /* \"erc20/contracts/StandardToken.sol\":1844:2031  function approve(address _spender, uint256 _value) public returns (bool) {\r... */\n    tag_24:\n        /* \"erc20/contracts/StandardToken.sol\":1911:1915  bool */\n      0x0\n        /* \"erc20/contracts/StandardToken.sol\":1956:1962  _value */\n      dup2\n        /* \"erc20/contracts/StandardToken.sol\":1924:1931  allowed */\n      0x2\n        /* \"erc20/contracts/StandardToken.sol\":1924:1943  allowed[msg.sender] */\n      0x0\n        /* \"erc20/contracts/StandardToken.sol\":1932:1942  msg.sender */\n      caller\n        /* \"erc20/contracts/StandardToken.sol\":1924:1943  allowed[msg.sender] */\n      0xffffffffffffffffffffffffffffffffffffffff\n      and\n      0xffffffffffffffffffffffffffffffffffffffff\n      and\n      dup2\n      mstore\n      0x20\n      add\n      swap1\n      dup2\n      mstore\n      0x20\n      add\n      0x0\n      keccak256\n        /* \"erc20/contracts/StandardToken.sol\":1924:1953  allowed[msg.sender][_spender] */\n      0x0\n        /* \"erc20/contracts/StandardToken.sol\":1944:1952  _spender */\n      dup6\n        /* \"erc20/contracts/StandardToken.sol\":1924:1953  allowed[msg.sender][_spender] */\n      0xffffffffffffffffffffffffffffffffffffffff\n      and\n      0xffffffffffffffffffffffffffffffffffffffff\n      and\n      dup2\n      mstore\n      0x20\n      add\n      swap1\n      dup2\n      mstore\n      0x20\n      add\n      0x0\n      keccak256\n        /* \"erc20/contracts/StandardToken.sol\":1924:1962  allowed[msg.sender][_spender] = _value */\n      dup2\n      swap1\n      sstore\n      pop\n        /* \"erc20/contracts/StandardToken.sol\":1990:1998  _spender */\n      dup3\n        /* \"erc20/contracts/StandardToken.sol\":1969:2007  Approval(msg.sender, _spender, _value) */\n      0xffffffffffffffffffffffffffffffffffffffff\n      and\n        /* \"erc20/contracts/StandardToken.sol\":1978:1988  msg.sender */\n      caller\n        /* \"erc20/contracts/StandardToken.sol\":1969:2007  Approval(msg.sender, _spender, _value) */\n      0xffffffffffffffffffffffffffffffffffffffff\n      and\n      0x8c5be1e5ebec7d5bd14f71427d1e84f3dd0314c0f7b2291e5b200ac8c7c3b925\n        /* \"erc20/contracts/StandardToken.sol\":2000:2006  _value */\n      dup5\n        /* \"erc20/contracts/StandardToken.sol\":1969:2007  Approval(msg.sender, _spender, _value) */\n      mload(0x40)\n      dup1\n      dup3\n      dup2\n      mstore\n      0x20\n      add\n      swap2\n      pop\n      pop\n      mload(0x40)\n      dup1\n      swap2\n      sub\n      swap1\n      log3\n        /* \"erc20/contracts/StandardToken.sol\":2021:2025  true */\n      0x1\n        /* \"erc20/contracts/StandardToken.sol\":2014:2025  return true */\n      swap1\n      pop\n        /* \"erc20/contracts/StandardToken.sol\":1844:2031  function approve(address _spender, uint256 _value) public returns (bool) {\r... */\n      swap3\n      swap2\n      pop\n      pop\n      jump\t// out\n        /* \"erc20/contracts/ExampleToken.sol\":265:291  uint256 public totalSupply */\n    tag_27:\n      sload(0x7)\n      dup2\n      jump\t// out\n        /* \"erc20/contracts/StandardToken.sol\":760:1209  function transferFrom(address _from, address _to, uint256 _value) public returns (bool) {\r... */\n    tag_30:\n        /* \"erc20/contracts/StandardToken.sol\":842:846  bool */\n      0x0\n        /* \"erc20/contracts/StandardToken.sol\":878:879  0 */\n      dup1\n        /* \"erc20/contracts/StandardToken.sol\":863:880  _to != address(0) */\n      0xffffffffffffffffffffffffffffffffffffffff\n      and\n        /* \"erc20/contracts/StandardToken.sol\":863:866  _to */\n      dup4\n        /* \"erc20/contracts/StandardToken.sol\":863:880  _to != address(0) */\n      0xffffffffffffffffffffffffffffffffffffffff\n      and\n      eq\n      iszero\n        /* \"erc20/contracts/StandardToken.sol\":855:881  require(_to != address(0)) */\n      iszero\n      iszero\n      tag_67\n      jumpi\n      0x0\n      dup1\n      revert\n    tag_67:\n        /* \"erc20/contracts/StandardToken.sol\":906:914  balances */\n      0x0\n        /* \"erc20/contracts/StandardToken.sol\":906:921  balances[_from] */\n      dup1\n        /* \"erc20/contracts/StandardToken.sol\":915:920  _from */\n      dup6\n        /* \"erc20/contracts/StandardToken.sol\":906:921  balances[_from] */\n      0xffffffffffffffffffffffffffffffffffffffff\n      and\n      0xffffffffffffffffffffffffffffffffffffffff\n      and\n      dup2\n      mstore\n      0x20\n      add\n      swap1\n      dup2\n      mstore\n      0x20\n      add\n      0x0\n      keccak256\n      sload\n        /* \"erc20/contracts/StandardToken.sol\":896:902  _value */\n      dup3\n        /* \"erc20/contracts/StandardToken.sol\":896:921  _value <= balances[_from] */\n      gt\n      iszero\n        /* \"erc20/contracts/StandardToken.sol\":888:922  require(_value <= balances[_from]) */\n      iszero\n      iszero\n      tag_68\n      jumpi\n      0x0\n      dup1\n      revert\n    tag_68:\n        /* \"erc20/contracts/StandardToken.sol\":947:954  allowed */\n      0x2\n        /* \"erc20/contracts/StandardToken.sol\":947:961  allowed[_from] */\n      0x0\n        /* \"erc20/contracts/StandardToken.sol\":955:960  _from */\n      dup6\n        /* \"erc20/contracts/StandardToken.sol\":947:961  allowed[_from] */\n      0xffffffffffffffffffffffffffffffffffffffff\n      and\n      0xffffffffffffffffffffffffffffffffffffffff\n      and\n      dup2\n      mstore\n      0x20\n      add\n      swap1\n      dup2\n      mstore\n      0x20\n      add\n      0x0\n      keccak256\n        /* \"erc20/contracts/StandardToken.sol\":947:973  allowed[_from][msg.sender] */\n      0x0\n        /* \"erc20/contracts/StandardToken.sol\":962:972  msg.sender */\n      caller\n        /* \"erc20/contracts/StandardToken.sol\":947:973  allowed[_from][msg.sender] */\n      0xffffffffffffffffffffffffffffffffffffffff\n      and\n      0xffffffffffffffffffffffffffffffffffffffff\n      and\n      dup2\n      mstore\n      0x20\n      add\n      swap1\n      dup2\n      mstore\n      0x20\n      add\n      0x0\n      keccak256\n      sload\n        /* \"erc20/contracts/StandardToken.sol\":937:943  _value */\n      dup3\n        /* \"erc20/contracts/StandardToken.sol\":937:973  _value <= allowed[_from][msg.sender] */\n      gt\n      iszero\n        /* \"erc20/contracts/StandardToken.sol\":929:974  require(_value <= allowed[_from][msg.sender]) */\n      iszero\n      iszero\n      tag_69\n      jumpi\n      0x0\n      dup1\n      revert\n    tag_69:\n        /* \"erc20/contracts/StandardToken.sol\":1001:1028  balances[_from].sub(_value) */\n      tag_70\n        /* \"erc20/contracts/StandardToken.sol\":1021:1027  _value */\n      dup3\n        /* \"erc20/contracts/StandardToken.sol\":1001:1009  balances */\n      0x0\n        /* \"erc20/contracts/StandardToken.sol\":1001:1016  balances[_from] */\n      dup1\n        /* \"erc20/contracts/StandardToken.sol\":1010:1015  _from */\n      dup8\n        /* \"erc20/contracts/StandardToken.sol\":1001:1016  balances[_from] */\n      0xffffffffffffffffffffffffffffffffffffffff\n      and\n      0xffffffffffffffffffffffffffffffffffffffff\n      and\n      dup2\n      mstore\n      0x20\n      add\n      swap1\n      dup2\n      mstore\n      0x20\n      add\n      0x0\n      keccak256\n      sload\n        /* \"erc20/contracts/StandardToken.sol\":1001:1020  balances[_from].sub */\n      tag_71\n      swap1\n        /* \"erc20/contracts/StandardToken.sol\":1001:1028  balances[_from].sub(_value) */\n      swap2\n      swap1\n      0xffffffff\n      and\n      jump\t// in\n    tag_70:\n        /* \"erc20/contracts/StandardToken.sol\":983:991  balances */\n      0x0\n        /* \"erc20/contracts/StandardToken.sol\":983:998  balances[_from] */\n      dup1\n        /* \"erc20/contracts/StandardToken.sol\":992:997  _from */\n      dup7\n        /* \"erc20/contracts/StandardToken.sol\":983:998  balances[_from] */\n      0xffffffffffffffffffffffffffffffffffffffff\n      and\n      0xffffffffffffffffffffffffffffffffffffffff\n      and\n      dup2\n      mstore\n      0x20\n      add\n      swap1\n      dup2\n      mstore\n      0x20\n      add\n      0x0\n      keccak256\n        /* \"erc20/contracts/StandardToken.sol\":983:1028  balances[_from] = balances[_from].sub(_value) */\n      dup2\n      swap1\n      sstore\n      pop\n        /* \"erc20/contracts/StandardToken.sol\":1051:1076  balances[_to].add(_value) */\n      tag_72\n        /* \"erc20/contracts/StandardToken.sol\":1069:1075  _value */\n      dup3\n        /* \"erc20/contracts/StandardToken.sol\":1051:1059  balances */\n      0x0\n        /* \"erc20/contracts/StandardToken.sol\":1051:1064  balances[_to] */\n      dup1\n        /* \"erc20/contracts/StandardToken.sol\":1060:1063  _to */\n      dup7\n        /* \"erc20/contracts/StandardToken.sol\":1051:1064  balances[_to] */\n      0xffffffffffffffffffffffffffffffffffffffff\n      and\n      0xffffffffffffffffffffffffffffffffffffffff\n      and\n      dup2\n      mstore\n      0x20\n      add\n      swap1\n      dup2\n      mstore\n      0x20\n      add\n      0x0\n      keccak256\n      sload\n        /* \"erc20/contracts/StandardToken.sol\":1051:1068  balances[_to].add */\n      tag_73\n      swap1\n        /* \"erc20/contracts/StandardToken.sol\":1051:1076  balances[_to].add(_value) */\n      swap2\n      swap1\n      0xffffffff\n      and\n      jump\t// in\n    tag_72:\n        /* \"erc20/contracts/StandardToken.sol\":1035:1043  balances */\n      0x0\n        /* \"erc20/contracts/StandardToken.sol\":1035:1048  balances[_to] */\n      dup1\n        /* \"erc20/contracts/StandardToken.sol\":1044:1047  _to */\n      dup6\n        /* \"erc20/contracts/StandardToken.sol\":1035:1048  balances[_to] */\n      0xffffffffffffffffffffffffffffffffffffffff\n      and\n      0xffffffffffffffffffffffffffffffffffffffff\n      and\n      dup2\n      mstore\n      0x20\n      add\n      swap1\n      dup2\n      mstore\n      0x20\n      add\n      0x0\n      keccak256\n        /* \"erc20/contracts/StandardToken.sol\":1035:1076  balances[_to] = balances[_to].add(_value) */\n      dup2\n      swap1\n      sstore\n      pop\n        /* \"erc20/contracts/StandardToken.sol\":1112:1150  allowed[_from][msg.sender].sub(_value) */\n      tag_74\n        /* \"erc20/contracts/StandardToken.sol\":1143:1149  _value */\n      dup3\n        /* \"erc20/contracts/StandardToken.sol\":1112:1119  allowed */\n      0x2\n        /* \"erc20/contracts/StandardToken.sol\":1112:1126  allowed[_from] */\n      0x0\n        /* \"erc20/contracts/StandardToken.sol\":1120:1125  _from */\n      dup8\n        /* \"erc20/contracts/StandardToken.sol\":1112:1126  allowed[_from] */\n      0xffffffffffffffffffffffffffffffffffffffff\n      and\n      0xffffffffffffffffffffffffffffffffffffffff\n      and\n      dup2\n      mstore\n      0x20\n      add\n      swap1\n      dup2\n      mstore\n      0x20\n      add\n      0x0\n      keccak256\n        /* \"erc20/contracts/StandardToken.sol\":1112:1138  allowed[_from][msg.sender] */\n      0x0\n        /* \"erc20/contracts/StandardToken.sol\":1127:1137  msg.sender */\n      caller\n        /* \"erc20/contracts/StandardToken.sol\":1112:1138  allowed[_from][msg.sender] */\n      0xffffffffffffffffffffffffffffffffffffffff\n      and\n      0xffffffffffffffffffffffffffffffffffffffff\n      and\n      dup2\n      mstore\n      0x20\n      add\n      swap1\n      dup2\n      mstore\n      0x20\n      add\n      0x0\n      keccak256\n      sload\n        /* \"erc20/contracts/StandardToken.sol\":1112:1142  allowed[_from][msg.sender].sub */\n      tag_71\n      swap1\n        /* \"erc20/contracts/StandardToken.sol\":1112:1150  allowed[_from][msg.sender].sub(_value) */\n      swap2\n      swap1\n      0xffffffff\n      and\n      jump\t// in\n    tag_74:\n        /* \"erc20/contracts/StandardToken.sol\":1083:1090  allowed */\n      0x2\n        /* \"erc20/contracts/StandardToken.sol\":1083:1097  allowed[_from] */\n      0x0\n        /* \"erc20/contracts/StandardToken.sol\":1091:1096  _from */\n      dup7\n        /* \"erc20/contracts/StandardToken.sol\":1083:1097  allowed[_from] */\n      0xffffffffffffffffffffffffffffffffffffffff\n      and\n      0xffffffffffffffffffffffffffffffffffffffff\n      and\n      dup2\n      mstore\n      0x20\n      add\n      swap1\n      dup2\n      mstore\n      0x20\n      add\n      0x0\n      keccak256\n        /* \"erc20/contracts/StandardToken.sol\":1083:1109  allowed[_from][msg.sender] */\n      0x0\n        /* \"erc20/contracts/StandardToken.sol\":1098:1108  msg.sender */\n      caller\n        /* \"erc20/contracts/StandardToken.sol\":1083:1109  allowed[_from][msg.sender] */\n      0xffffffffffffffffffffffffffffffffffffffff\n      and\n      0xffffffffffffffffffffffffffffffffffffffff\n      and\n      dup2\n      mstore\n      0x20\n      add\n      swap1\n      dup2\n      mstore\n      0x20\n      add\n      0x0\n      keccak256\n        /* \"erc20/contracts/StandardToken.sol\":1083:1150  allowed[_from][msg.sender] = allowed[_from][msg.sender].sub(_value) */\n      dup2\n      swap1\n      sstore\n      pop\n        /* \"erc20/contracts/StandardToken.sol\":1173:1176  _to */\n      dup3\n        /* \"erc20/contracts/StandardToken.sol\":1157:1185  Transfer(_from, _to, _value) */\n      0xffffffffffffffffffffffffffffffffffffffff\n      and\n        /* \"erc20/contracts/StandardToken.sol\":1166:1171  _from */\n      dup5\n        /* \"erc20/contracts/StandardToken.sol\":1157:1185  Transfer(_from, _to, _value) */\n      0xffffffffffffffffffffffffffffffffffffffff\n      and\n      0xddf252ad1be2c89b69c2b068fc378daa952ba7f163c4a11628f55a4df523b3ef\n        /* \"erc20/contracts/StandardToken.sol\":1178:1184  _value */\n      dup5\n        /* \"erc20/contracts/StandardToken.sol\":1157:1185  Transfer(_from, _to, _value) */\n      mload(0x40)\n      dup1\n      dup3\n      dup2\n      mstore\n      0x20\n      add\n      swap2\n      pop\n      pop\n      mload(0x40)\n      dup1\n      swap2\n      sub\n      swap1\n      log3\n        /* \"erc20/contracts/StandardToken.sol\":1199:1203  true */\n      0x1\n        /* \"erc20/contracts/StandardToken.sol\":1192:1203  return true */\n      swap1\n      pop\n        /* \"erc20/contracts/StandardToken.sol\":760:1209  function transferFrom(address _from, address _to, uint256 _value) public returns (bool) {\r... */\n      swap4\n      swap3\n      pop\n      pop\n      pop\n      jump\t// out\n        /* \"erc20/contracts/ExampleToken.sol\":207:260  uint public INITIAL_SUPPLY = 10000 * (10 ** decimals) */\n    tag_33:\n      sload(0x6)\n      dup2\n      jump\t// out\n        /* \"erc20/contracts/ExampleToken.sol\":177:202  uint public decimals = 18 */\n    tag_36:\n      sload(0x5)\n      dup2\n      jump\t// out\n        /* \"erc20/contracts/StandardToken.sol\":3690:4097  function decreaseApproval(address _spender, uint _subtractedValue) public returns (bool) {\r... */\n    tag_39:\n        /* \"erc20/contracts/StandardToken.sol\":3773:3777  bool */\n      0x0\n        /* \"erc20/contracts/StandardToken.sol\":3786:3799  uint oldValue */\n      dup1\n        /* \"erc20/contracts/StandardToken.sol\":3802:3809  allowed */\n      0x2\n        /* \"erc20/contracts/StandardToken.sol\":3802:3821  allowed[msg.sender] */\n      0x0\n        /* \"erc20/contracts/StandardToken.sol\":3810:3820  msg.sender */\n      caller\n        /* \"erc20/contracts/StandardToken.sol\":3802:3821  allowed[msg.sender] */\n      0xffffffffffffffffffffffffffffffffffffffff\n      and\n      0xffffffffffffffffffffffffffffffffffffffff\n      and\n      dup2\n      mstore\n      0x20\n      add\n      swap1\n      dup2\n      mstore\n      0x20\n      add\n      0x0\n      keccak256\n        /* \"erc20/contracts/StandardToken.sol\":3802:3831  allowed[msg.sender][_spender] */\n      0x0\n        /* \"erc20/contracts/StandardToken.sol\":3822:3830  _spender */\n      dup6\n        /* \"erc20/contracts/StandardToken.sol\":3802:3831  allowed[msg.sender][_spender] */\n      0xffffffffffffffffffffffffffffffffffffffff\n      and\n      0xffffffffffffffffffffffffffffffffffffffff\n      and\n      dup2\n      mstore\n      0x20\n      add\n      swap1\n      dup2\n      mstore\n      0x20\n      add\n      0x0\n      keccak256\n      sload\n        /* \"erc20/contracts/StandardToken.sol\":3786:3831  uint oldValue = allowed[msg.sender][_spender] */\n      swap1\n      pop\n        /* \"erc20/contracts/StandardToken.sol\":3861:3869  oldValue */\n      dup1\n        /* \"erc20/contracts/StandardToken.sol\":3842:3858  _subtractedValue */\n      dup4\n        /* \"erc20/contracts/StandardToken.sol\":3842:3869  _subtractedValue > oldValue */\n      gt\n        /* \"erc20/contracts/StandardToken.sol\":3838:4006  if (_subtractedValue > oldValue) {\r... */\n      iszero\n      tag_76\n      jumpi\n        /* \"erc20/contracts/StandardToken.sol\":3912:3913  0 */\n      0x0\n        /* \"erc20/contracts/StandardToken.sol\":3880:3887  allowed */\n      0x2\n        /* \"erc20/contracts/StandardToken.sol\":3880:3899  allowed[msg.sender] */\n      0x0\n        /* \"erc20/contracts/StandardToken.sol\":3888:3898  msg.sender */\n      caller\n        /* \"erc20/contracts/StandardToken.sol\":3880:3899  allowed[msg.sender] */\n      0xffffffffffffffffffffffffffffffffffffffff\n      and\n      0xffffffffffffffffffffffffffffffffffffffff\n      and\n      dup2\n      mstore\n      0x20\n      add\n      swap1\n      dup2\n      mstore\n      0x20\n      add\n      0x0\n      keccak256\n        /* \"erc20/contracts/StandardToken.sol\":3880:3909  allowed[msg.sender][_spender] */\n      0x0\n        /* \"erc20/contracts/StandardToken.sol\":3900:3908  _spender */\n      dup7\n        /* \"erc20/contracts/StandardToken.sol\":3880:3909  allowed[msg.sender][_spender] */\n      0xffffffffffffffffffffffffffffffffffffffff\n      and\n      0xffffffffffffffffffffffffffffffffffffffff\n      and\n      dup2\n      mstore\n      0x20\n      add\n      swap1\n      dup2\n      mstore\n      0x20\n      add\n      0x0\n      keccak256\n        /* \"erc20/contracts/StandardToken.sol\":3880:3913  allowed[msg.sender][_spender] = 0 */\n      dup2\n      swap1\n      sstore\n      pop\n        /* \"erc20/contracts/StandardToken.sol\":3838:4006  if (_subtractedValue > oldValue) {\r... */\n      jump(tag_77)\n    tag_76:\n        /* \"erc20/contracts/StandardToken.sol\":3968:3998  oldValue.sub(_subtractedValue) */\n      tag_78\n        /* \"erc20/contracts/StandardToken.sol\":3981:3997  _subtractedValue */\n      dup4\n        /* \"erc20/contracts/StandardToken.sol\":3968:3976  oldValue */\n      dup3\n        /* \"erc20/contracts/StandardToken.sol\":3968:3980  oldValue.sub */\n      tag_71\n      swap1\n        /* \"erc20/contracts/StandardToken.sol\":3968:3998  oldValue.sub(_subtractedValue) */\n      swap2\n      swap1\n      0xffffffff\n      and\n      jump\t// in\n    tag_78:\n        /* \"erc20/contracts/StandardToken.sol\":3936:3943  allowed */\n      0x2\n        /* \"erc20/contracts/StandardToken.sol\":3936:3955  allowed[msg.sender] */\n      0x0\n        /* \"erc20/contracts/StandardToken.sol\":3944:3954  msg.sender */\n      caller\n        /* \"erc20/contracts/StandardToken.sol\":3936:3955  allowed[msg.sender] */\n      0xffffffffffffffffffffffffffffffffffffffff\n      and\n      0xffffffffffffffffffffffffffffffffffffffff\n      and\n      dup2\n      mstore\n      0x20\n      add\n      swap1\n      dup2\n      mstore\n      0x20\n      add\n      0x0\n      keccak256\n        /* \"erc20/contracts/StandardToken.sol\":3936:3965  allowed[msg.sender][_spender] */\n      0x0\n        /* \"erc20/contracts/StandardToken.sol\":3956:3964  _spender */\n      dup7\n        /* \"erc20/contracts/StandardToken.sol\":3936:3965  allowed[msg.sender][_spender] */\n      0xffffffffffffffffffffffffffffffffffffffff\n      and\n      0xffffffffffffffffffffffffffffffffffffffff\n      and\n      dup2\n      mstore\n      0x20\n      add\n      swap1\n      dup2\n      mstore\n      0x20\n      add\n      0x0\n      keccak256\n        /* \"erc20/contracts/StandardToken.sol\":3936:3998  allowed[msg.sender][_spender] = oldValue.sub(_subtractedValue) */\n      dup2\n      swap1\n      sstore\n      pop\n        /* \"erc20/contracts/StandardToken.sol\":3838:4006  if (_subtractedValue > oldValue) {\r... */\n    tag_77:\n        /* \"erc20/contracts/StandardToken.sol\":4033:4041  _spender */\n      dup4\n        /* \"erc20/contracts/StandardToken.sol\":4012:4073  Approval(msg.sender, _spender, allowed[msg.sender][_spender]) */\n      0xffffffffffffffffffffffffffffffffffffffff\n      and\n        /* \"erc20/contracts/StandardToken.sol\":4021:4031  msg.sender */\n      caller\n        /* \"erc20/contracts/StandardToken.sol\":4012:4073  Approval(msg.sender, _spender, allowed[msg.sender][_spender]) */\n      0xffffffffffffffffffffffffffffffffffffffff\n      and\n      0x8c5be1e5ebec7d5bd14f71427d1e84f3dd0314c0f7b2291e5b200ac8c7c3b925\n        /* \"erc20/contracts/StandardToken.sol\":4043:4050  allowed */\n      0x2\n        /* \"erc20/contracts/StandardToken.sol\":4043:4062  allowed[msg.sender] */\n      0x0\n        /* \"erc20/contracts/StandardToken.sol\":4051:4061  msg.sender */\n      caller\n        /* \"erc20/contracts/StandardToken.sol\":4043:4062  allowed[msg.sender] */\n      0xffffffffffffffffffffffffffffffffffffffff\n      and\n      0xffffffffffffffffffffffffffffffffffffffff\n      and\n      dup2\n      mstore\n      0x20\n      add\n      swap1\n      dup2\n      mstore\n      0x20\n      add\n      0x0\n      keccak256\n        /* \"erc20/contracts/StandardToken.sol\":4043:4072  allowed[msg.sender][_spender] */\n      0x0\n        /* \"erc20/contracts/StandardToken.sol\":4063:4071  _spender */\n      dup9\n        /* \"erc20/contracts/StandardToken.sol\":4043:4072  allowed[msg.sender][_spender] */\n      0xffffffffffffffffffffffffffffffffffffffff\n      and\n      0xffffffffffffffffffffffffffffffffffffffff\n      and\n      dup2\n      mstore\n      0x20\n      add\n      swap1\n      dup2\n      mstore\n      0x20\n      add\n      0x0\n      keccak256\n      sload\n        /* \"erc20/contracts/StandardToken.sol\":4012:4073  Approval(msg.sender, _spender, allowed[msg.sender][_spender]) */\n      mload(0x40)\n      dup1\n      dup3\n      dup2\n      mstore\n      0x20\n      add\n      swap2\n      pop\n      pop\n      mload(0x40)\n      dup1\n      swap2\n      sub\n      swap1\n      log3\n        /* \"erc20/contracts/StandardToken.sol\":4087:4091  true */\n      0x1\n        /* \"erc20/contracts/StandardToken.sol\":4080:4091  return true */\n      swap2\n      pop\n        /* \"erc20/contracts/StandardToken.sol\":3690:4097  function decreaseApproval(address _spender, uint _subtractedValue) public returns (bool) {\r... */\n      pop\n      swap3\n      swap2\n      pop\n      pop\n      jump\t// out\n        /* \"erc20/contracts/BasicToken.sol\":1226:1335  function balanceOf(address _owner) public view returns (uint256 balance) {\r... */\n    tag_42:\n        /* \"erc20/contracts/BasicToken.sol\":1282:1297  uint256 balance */\n      0x0\n        /* \"erc20/contracts/BasicToken.sol\":1313:1321  balances */\n      dup1\n        /* \"erc20/contracts/BasicToken.sol\":1313:1329  balances[_owner] */\n      0x0\n        /* \"erc20/contracts/BasicToken.sol\":1322:1328  _owner */\n      dup4\n        /* \"erc20/contracts/BasicToken.sol\":1313:1329  balances[_owner] */\n      0xffffffffffffffffffffffffffffffffffffffff\n      and\n      0xffffffffffffffffffffffffffffffffffffffff\n      and\n      dup2\n      mstore\n      0x20\n      add\n      swap1\n      dup2\n      mstore\n      0x20\n      add\n      0x0\n      keccak256\n      sload\n        /* \"erc20/contracts/BasicToken.sol\":1306:1329  return balances[_owner] */\n      swap1\n      pop\n        /* \"erc20/contracts/BasicToken.sol\":1226:1335  function balanceOf(address _owner) public view returns (uint256 balance) {\r... */\n      swap2\n      swap1\n      pop\n      jump\t// out\n        /* \"erc20/contracts/ExampleToken.sol\":144:172  string public symbol = \"EXT\" */\n    tag_45:\n      0x4\n      dup1\n      sload\n      0x1\n      dup2\n      0x1\n      and\n      iszero\n      0x100\n      mul\n      sub\n      and\n      0x2\n      swap1\n      div\n      dup1\n      0x1f\n      add\n      0x20\n      dup1\n      swap2\n      div\n      mul\n      0x20\n      add\n      mload(0x40)\n      swap1\n      dup2\n      add\n      0x40\n      mstore\n      dup1\n      swap3\n      swap2\n      swap1\n      dup2\n      dup2\n      mstore\n      0x20\n      add\n      dup3\n      dup1\n      sload\n      0x1\n      dup2\n      0x1\n      and\n      iszero\n      0x100\n      mul\n      sub\n      and\n      0x2\n      swap1\n      div\n      dup1\n      iszero\n      tag_80\n      jumpi\n      dup1\n      0x1f\n      lt\n      tag_81\n      jumpi\n      0x100\n      dup1\n      dup4\n      sload\n      div\n      mul\n      dup4\n      mstore\n      swap2\n      0x20\n      add\n      swap2\n      jump(tag_80)\n    tag_81:\n      dup3\n      add\n      swap2\n      swap1\n      0x0\n      mstore\n      keccak256(0x0, 0x20)\n      swap1\n    tag_82:\n      dup2\n      sload\n      dup2\n      mstore\n      swap1\n      0x1\n      add\n      swap1\n      0x20\n      add\n      dup1\n      dup4\n      gt\n      tag_82\n      jumpi\n      dup3\n      swap1\n      sub\n      0x1f\n      and\n      dup3\n      add\n      swap2\n    tag_80:\n      pop\n      pop\n      pop\n      pop\n      pop\n      dup2\n      jump\t// out\n        /* \"erc20/contracts/BasicToken.sol\":629:1017  function transfer(address _to, uint256 _value) public returns (bool) {\r... */\n    tag_52:\n        /* \"erc20/contracts/BasicToken.sol\":692:696  bool */\n      0x0\n        /* \"erc20/contracts/BasicToken.sol\":728:729  0 */\n      dup1\n        /* \"erc20/contracts/BasicToken.sol\":713:730  _to != address(0) */\n      0xffffffffffffffffffffffffffffffffffffffff\n      and\n        /* \"erc20/contracts/BasicToken.sol\":713:716  _to */\n      dup4\n        /* \"erc20/contracts/BasicToken.sol\":713:730  _to != address(0) */\n      0xffffffffffffffffffffffffffffffffffffffff\n      and\n      eq\n      iszero\n        /* \"erc20/contracts/BasicToken.sol\":705:731  require(_to != address(0)) */\n      iszero\n      iszero\n      tag_84\n      jumpi\n      0x0\n      dup1\n      revert\n    tag_84:\n        /* \"erc20/contracts/BasicToken.sol\":756:764  balances */\n      0x0\n        /* \"erc20/contracts/BasicToken.sol\":756:776  balances[msg.sender] */\n      dup1\n        /* \"erc20/contracts/BasicToken.sol\":765:775  msg.sender */\n      caller\n        /* \"erc20/contracts/BasicToken.sol\":756:776  balances[msg.sender] */\n      0xffffffffffffffffffffffffffffffffffffffff\n      and\n      0xffffffffffffffffffffffffffffffffffffffff\n      and\n      dup2\n      mstore\n      0x20\n      add\n      swap1\n      dup2\n      mstore\n      0x20\n      add\n      0x0\n      keccak256\n      sload\n        /* \"erc20/contracts/BasicToken.sol\":746:752  _value */\n      dup3\n        /* \"erc20/contracts/BasicToken.sol\":746:776  _value <= balances[msg.sender] */\n      gt\n      iszero\n        /* \"erc20/contracts/BasicToken.sol\":738:777  require(_value <= balances[msg.sender]) */\n      iszero\n      iszero\n      tag_85\n      jumpi\n      0x0\n      dup1\n      revert\n    tag_85:\n        /* \"erc20/contracts/BasicToken.sol\":873:905  balances[msg.sender].sub(_value) */\n      tag_86\n        /* \"erc20/contracts/BasicToken.sol\":898:904  _value */\n      dup3\n        /* \"erc20/contracts/BasicToken.sol\":873:881  balances */\n      0x0\n        /* \"erc20/contracts/BasicToken.sol\":873:893  balances[msg.sender] */\n      dup1\n        /* \"erc20/contracts/BasicToken.sol\":882:892  msg.sender */\n      caller\n        /* \"erc20/contracts/BasicToken.sol\":873:893  balances[msg.sender] */\n      0xffffffffffffffffffffffffffffffffffffffff\n      and\n      0xffffffffffffffffffffffffffffffffffffffff\n      and\n      dup2\n      mstore\n      0x20\n      add\n      swap1\n      dup2\n      mstore\n      0x20\n      add\n      0x0\n      keccak256\n      sload\n        /* \"erc20/contracts/BasicToken.sol\":873:897  balances[msg.sender].sub */\n      tag_71\n      swap1\n        /* \"erc20/contracts/BasicToken.sol\":873:905  balances[msg.sender].sub(_value) */\n      swap2\n      swap1\n      0xffffffff\n      and\n      jump\t// in\n    tag_86:\n        /* \"erc20/contracts/BasicToken.sol\":850:858  balances */\n      0x0\n        /* \"erc20/contracts/BasicToken.sol\":850:870  balances[msg.sender] */\n      dup1\n        /* \"erc20/contracts/BasicToken.sol\":859:869  msg.sender */\n      caller\n        /* \"erc20/contracts/BasicToken.sol\":850:870  balances[msg.sender] */\n      0xffffffffffffffffffffffffffffffffffffffff\n      and\n      0xffffffffffffffffffffffffffffffffffffffff\n      and\n      dup2\n      mstore\n      0x20\n      add\n      swap1\n      dup2\n      mstore\n      0x20\n      add\n      0x0\n      keccak256\n        /* \"erc20/contracts/BasicToken.sol\":850:905  balances[msg.sender] = balances[msg.sender].sub(_value) */\n      dup2\n      swap1\n      sstore\n      pop\n        /* \"erc20/contracts/BasicToken.sol\":928:953  balances[_to].add(_value) */\n      tag_87\n        /* \"erc20/contracts/BasicToken.sol\":946:952  _value */\n      dup3\n        /* \"erc20/contracts/BasicToken.sol\":928:936  balances */\n      0x0\n        /* \"erc20/contracts/BasicToken.sol\":928:941  balances[_to] */\n      dup1\n        /* \"erc20/contracts/BasicToken.sol\":937:940  _to */\n      dup7\n        /* \"erc20/contracts/BasicToken.sol\":928:941  balances[_to] */\n      0xffffffffffffffffffffffffffffffffffffffff\n      and\n      0xffffffffffffffffffffffffffffffffffffffff\n      and\n      dup2\n      mstore\n      0x20\n      add\n      swap1\n      dup2\n      mstore\n      0x20\n      add\n      0x0\n      keccak256\n      sload\n        /* \"erc20/contracts/BasicToken.sol\":928:945  balances[_to].add */\n      tag_73\n      swap1\n        /* \"erc20/contracts/BasicToken.sol\":928:953  balances[_to].add(_value) */\n      swap2\n      swap1\n      0xffffffff\n      and\n      jump\t// in\n    tag_87:\n        /* \"erc20/contracts/BasicToken.sol\":912:920  balances */\n      0x0\n        /* \"erc20/contracts/BasicToken.sol\":912:925  balances[_to] */\n      dup1\n        /* \"erc20/contracts/BasicToken.sol\":921:924  _to */\n      dup6\n        /* \"erc20/contracts/BasicToken.sol\":912:925  balances[_to] */\n      0xffffffffffffffffffffffffffffffffffffffff\n      and\n      0xffffffffffffffffffffffffffffffffffffffff\n      and\n      dup2\n      mstore\n      0x20\n      add\n      swap1\n      dup2\n      mstore\n      0x20\n      add\n      0x0\n      keccak256\n        /* \"erc20/contracts/BasicToken.sol\":912:953  balances[_to] = balances[_to].add(_value) */\n      dup2\n      swap1\n      sstore\n      pop\n        /* \"erc20/contracts/BasicToken.sol\":981:984  _to */\n      dup3\n        /* \"erc20/contracts/BasicToken.sol\":960:993  Transfer(msg.sender, _to, _value) */\n      0xffffffffffffffffffffffffffffffffffffffff\n      and\n        /* \"erc20/contracts/BasicToken.sol\":969:979  msg.sender */\n      caller\n        /* \"erc20/contracts/BasicToken.sol\":960:993  Transfer(msg.sender, _to, _value) */\n      0xffffffffffffffffffffffffffffffffffffffff\n      and\n      0xddf252ad1be2c89b69c2b068fc378daa952ba7f163c4a11628f55a4df523b3ef\n        /* \"erc20/contracts/BasicToken.sol\":986:992  _value */\n      dup5\n        /* \"erc20/contracts/BasicToken.sol\":960:993  Transfer(msg.sender, _to, _value) */\n      mload(0x40)\n      dup1\n      dup3\n      dup2\n      mstore\n      0x20\n      add\n      swap2\n      pop\n      pop\n      mload(0x40)\n      dup1\n      swap2\n      sub\n      swap1\n      log3\n        /* \"erc20/contracts/BasicToken.sol\":1007:1011  true */\n      0x1\n        /* \"erc20/contracts/BasicToken.sol\":1000:1011  return true */\n      swap1\n      pop\n        /* \"erc20/contracts/BasicToken.sol\":629:1017  function transfer(address _to, uint256 _value) public returns (bool) {\r... */\n      swap3\n      swap2\n      pop\n      pop\n      jump\t// out\n        /* \"erc20/contracts/StandardToken.sol\":2955:3216  function increaseApproval(address _spender, uint _addedValue) public returns (bool) {\r... */\n    tag_55:\n        /* \"erc20/contracts/StandardToken.sol\":3033:3037  bool */\n      0x0\n        /* \"erc20/contracts/StandardToken.sol\":3078:3124  allowed[msg.sender][_spender].add(_addedValue) */\n      tag_89\n        /* \"erc20/contracts/StandardToken.sol\":3112:3123  _addedValue */\n      dup3\n        /* \"erc20/contracts/StandardToken.sol\":3078:3085  allowed */\n      0x2\n        /* \"erc20/contracts/StandardToken.sol\":3078:3097  allowed[msg.sender] */\n      0x0\n        /* \"erc20/contracts/StandardToken.sol\":3086:3096  msg.sender */\n      caller\n        /* \"erc20/contracts/StandardToken.sol\":3078:3097  allowed[msg.sender] */\n      0xffffffffffffffffffffffffffffffffffffffff\n      and\n      0xffffffffffffffffffffffffffffffffffffffff\n      and\n      dup2\n      mstore\n      0x20\n      add\n      swap1\n      dup2\n      mstore\n      0x20\n      add\n      0x0\n      keccak256\n        /* \"erc20/contracts/StandardToken.sol\":3078:3107  allowed[msg.sender][_spender] */\n      0x0\n        /* \"erc20/contracts/StandardToken.sol\":3098:3106  _spender */\n      dup7\n        /* \"erc20/contracts/StandardToken.sol\":3078:3107  allowed[msg.sender][_spender] */\n      0xffffffffffffffffffffffffffffffffffffffff\n      and\n      0xffffffffffffffffffffffffffffffffffffffff\n      and\n      dup2\n      mstore\n      0x20\n      add\n      swap1\n      dup2\n      mstore\n      0x20\n      add\n      0x0\n      keccak256\n      sload\n        /* \"erc20/contracts/StandardToken.sol\":3078:3111  allowed[msg.sender][_spender].add */\n      tag_73\n      swap1\n        /* \"erc20/contracts/StandardToken.sol\":3078:3124  allowed[msg.sender][_spender].add(_addedValue) */\n      swap2\n      swap1\n      0xffffffff\n      and\n      jump\t// in\n    tag_89:\n        /* \"erc20/contracts/StandardToken.sol\":3046:3053  allowed */\n      0x2\n        /* \"erc20/contracts/StandardToken.sol\":3046:3065  allowed[msg.sender] */\n      0x0\n        /* \"erc20/contracts/StandardToken.sol\":3054:3064  msg.sender */\n      caller\n        /* \"erc20/contracts/StandardToken.sol\":3046:3065  allowed[msg.sender] */\n      0xffffffffffffffffffffffffffffffffffffffff\n      and\n      0xffffffffffffffffffffffffffffffffffffffff\n      and\n      dup2\n      mstore\n      0x20\n      add\n      swap1\n      dup2\n      mstore\n      0x20\n      add\n      0x0\n      keccak256\n        /* \"erc20/contracts/StandardToken.sol\":3046:3075  allowed[msg.sender][_spender] */\n      0x0\n        /* \"erc20/contracts/StandardToken.sol\":3066:3074  _spender */\n      dup6\n        /* \"erc20/contracts/StandardToken.sol\":3046:3075  allowed[msg.sender][_spender] */\n      0xffffffffffffffffffffffffffffffffffffffff\n      and\n      0xffffffffffffffffffffffffffffffffffffffff\n      and\n      dup2\n      mstore\n      0x20\n      add\n      swap1\n      dup2\n      mstore\n      0x20\n      add\n      0x0\n      keccak256\n        /* \"erc20/contracts/StandardToken.sol\":3046:3124  allowed[msg.sender][_spender] = allowed[msg.sender][_spender].add(_addedValue) */\n      dup2\n      swap1\n      sstore\n      pop\n        /* \"erc20/contracts/StandardToken.sol\":3152:3160  _spender */\n      dup3\n        /* \"erc20/contracts/StandardToken.sol\":3131:3192  Approval(msg.sender, _spender, allowed[msg.sender][_spender]) */\n      0xffffffffffffffffffffffffffffffffffffffff\n      and\n        /* \"erc20/contracts/StandardToken.sol\":3140:3150  msg.sender */\n      caller\n        /* \"erc20/contracts/StandardToken.sol\":3131:3192  Approval(msg.sender, _spender, allowed[msg.sender][_spender]) */\n      0xffffffffffffffffffffffffffffffffffffffff\n      and\n      0x8c5be1e5ebec7d5bd14f71427d1e84f3dd0314c0f7b2291e5b200ac8c7c3b925\n        /* \"erc20/contracts/StandardToken.sol\":3162:3169  allowed */\n      0x2\n        /* \"erc20/contracts/StandardToken.sol\":3162:3181  allowed[msg.sender] */\n      0x0\n        /* \"erc20/contracts/StandardToken.sol\":3170:3180  msg.sender */\n      caller\n        /* \"erc20/contracts/StandardToken.sol\":3162:3181  allowed[msg.sender] */\n      0xffffffffffffffffffffffffffffffffffffffff\n      and\n      0xffffffffffffffffffffffffffffffffffffffff\n      and\n      dup2\n      mstore\n      0x20\n      add\n      swap1\n      dup2\n      mstore\n      0x20\n      add\n      0x0\n      keccak256\n        /* \"erc20/contracts/StandardToken.sol\":3162:3191  allowed[msg.sender][_spender] */\n      0x0\n        /* \"erc20/contracts/StandardToken.sol\":3182:3190  _spender */\n      dup8\n        /* \"erc20/contracts/StandardToken.sol\":3162:3191  allowed[msg.sender][_spender] */\n      0xffffffffffffffffffffffffffffffffffffffff\n      and\n      0xffffffffffffffffffffffffffffffffffffffff\n      and\n      dup2\n      mstore\n      0x20\n      add\n      swap1\n      dup2\n      mstore\n      0x20\n      add\n      0x0\n      keccak256\n      sload\n        /* \"erc20/contracts/StandardToken.sol\":3131:3192  Approval(msg.sender, _spender, allowed[msg.sender][_spender]) */\n      mload(0x40)\n      dup1\n      dup3\n      dup2\n      mstore\n      0x20\n      add\n      swap2\n      pop\n      pop\n      mload(0x40)\n      dup1\n      swap2\n      sub\n      swap1\n      log3\n        /* \"erc20/contracts/StandardToken.sol\":3206:3210  true */\n      0x1\n        /* \"erc20/contracts/StandardToken.sol\":3199:3210  return true */\n      swap1\n      pop\n        /* \"erc20/contracts/StandardToken.sol\":2955:3216  function increaseApproval(address _spender, uint _addedValue) public returns (bool) {\r... */\n      swap3\n      swap2\n      pop\n      pop\n      jump\t// out\n        /* \"erc20/contracts/StandardToken.sol\":2358:2486  function allowance(address _owner, address _spender) public view returns (uint256) {\r... */\n    tag_58:\n        /* \"erc20/contracts/StandardToken.sol\":2432:2439  uint256 */\n      0x0\n        /* \"erc20/contracts/StandardToken.sol\":2455:2462  allowed */\n      0x2\n        /* \"erc20/contracts/StandardToken.sol\":2455:2470  allowed[_owner] */\n      0x0\n        /* \"erc20/contracts/StandardToken.sol\":2463:2469  _owner */\n      dup5\n        /* \"erc20/contracts/StandardToken.sol\":2455:2470  allowed[_owner] */\n      0xffffffffffffffffffffffffffffffffffffffff\n      and\n      0xffffffffffffffffffffffffffffffffffffffff\n      and\n      dup2\n      mstore\n      0x20\n      add\n      swap1\n      dup2\n      mstore\n      0x20\n      add\n      0x0\n      keccak256\n        /* \"erc20/contracts/StandardToken.sol\":2455:2480  allowed[_owner][_spender] */\n      0x0\n        /* \"erc20/contracts/StandardToken.sol\":2471:2479  _spender */\n      dup4\n        /* \"erc20/contracts/StandardToken.sol\":2455:2480  allowed[_owner][_spender] */\n      0xffffffffffffffffffffffffffffffffffffffff\n      and\n      0xffffffffffffffffffffffffffffffffffffffff\n      and\n      dup2\n      mstore\n      0x20\n      add\n      swap1\n      dup2\n      mstore\n      0x20\n      add\n      0x0\n      keccak256\n      sload\n        /* \"erc20/contracts/StandardToken.sol\":2448:2480  return allowed[_owner][_spender] */\n      swap1\n      pop\n        /* \"erc20/contracts/StandardToken.sol\":2358:2486  function allowance(address _owner, address _spender) public view returns (uint256) {\r... */\n      swap3\n      swap2\n      pop\n      pop\n      jump\t// out\n        /* \"erc20/contracts/GameContract.sol\":461:664  function PlayGame() public{\r... */\n    tag_61:\n        /* \"erc20/contracts/GameContract.sol\":498:508  var number */\n      0x0\n        /* \"erc20/contracts/GameContract.sol\":509:517  random() */\n      tag_92\n        /* \"erc20/contracts/GameContract.sol\":509:515  random */\n      tag_93\n        /* \"erc20/contracts/GameContract.sol\":509:517  random() */\n      jump\t// in\n    tag_92:\n        /* \"erc20/contracts/GameContract.sol\":498:517  var number=random() */\n      swap1\n      pop\n        /* \"erc20/contracts/GameContract.sol\":540:541  1 */\n      0x1\n        /* \"erc20/contracts/GameContract.sol\":532:538  number */\n      dup2\n        /* \"erc20/contracts/GameContract.sol\":532:541  number==1 */\n      eq\n        /* \"erc20/contracts/GameContract.sol\":529:656  if(number==1)\r... */\n      iszero\n      tag_94\n      jumpi\n        /* \"erc20/contracts/GameContract.sol\":561:591  Winner(msg.sender,number,true) */\n      0x50c1333027ff7c6d25a47998f498b8d06b7b2d02e5408ef0a5b5f42d22e8d8d9\n        /* \"erc20/contracts/GameContract.sol\":568:578  msg.sender */\n      caller\n        /* \"erc20/contracts/GameContract.sol\":579:585  number */\n      dup3\n        /* \"erc20/contracts/GameContract.sol\":586:590  true */\n      0x1\n        /* \"erc20/contracts/GameContract.sol\":561:591  Winner(msg.sender,number,true) */\n      mload(0x40)\n      dup1\n      dup5\n      0xffffffffffffffffffffffffffffffffffffffff\n      and\n      0xffffffffffffffffffffffffffffffffffffffff\n      and\n      dup2\n      mstore\n      0x20\n      add\n      dup4\n      dup2\n      mstore\n      0x20\n      add\n      dup3\n      iszero\n      iszero\n      iszero\n      iszero\n      dup2\n      mstore\n      0x20\n      add\n      swap4\n      pop\n      pop\n      pop\n      pop\n      mload(0x40)\n      dup1\n      swap2\n      sub\n      swap1\n      log1\n        /* \"erc20/contracts/GameContract.sol\":529:656  if(number==1)\r... */\n      jump(tag_95)\n    tag_94:\n        /* \"erc20/contracts/GameContract.sol\":625:656  Winner(msg.sender,number,false) */\n      0x50c1333027ff7c6d25a47998f498b8d06b7b2d02e5408ef0a5b5f42d22e8d8d9\n        /* \"erc20/contracts/GameContract.sol\":632:642  msg.sender */\n      caller\n        /* \"erc20/contracts/GameContract.sol\":643:649  number */\n      dup3\n        /* \"erc20/contracts/GameContract.sol\":650:655  false */\n      0x0\n        /* \"erc20/contracts/GameContract.sol\":625:656  Winner(msg.sender,number,false) */\n      mload(0x40)\n      dup1\n      dup5\n      0xffffffffffffffffffffffffffffffffffffffff\n      and\n      0xffffffffffffffffffffffffffffffffffffffff\n      and\n      dup2\n      mstore\n      0x20\n      add\n      dup4\n      dup2\n      mstore\n      0x20\n      add\n      dup3\n      iszero\n      iszero\n      iszero\n      iszero\n      dup2\n      mstore\n      0x20\n      add\n      swap4\n      pop\n      pop\n      pop\n      pop\n      mload(0x40)\n      dup1\n      swap2\n      sub\n      swap1\n      log1\n        /* \"erc20/contracts/GameContract.sol\":529:656  if(number==1)\r... */\n    tag_95:\n        /* \"erc20/contracts/GameContract.sol\":461:664  function PlayGame() public{\r... */\n      pop\n      jump\t// out\n        /* \"erc20/contracts/SafeMath.sol\":870:983  function sub(uint256 a, uint256 b) internal pure returns (uint256) {\r... */\n    tag_71:\n        /* \"erc20/contracts/SafeMath.sol\":928:935  uint256 */\n      0x0\n        /* \"erc20/contracts/SafeMath.sol\":956:957  a */\n      dup3\n        /* \"erc20/contracts/SafeMath.sol\":951:952  b */\n      dup3\n        /* \"erc20/contracts/SafeMath.sol\":951:957  b <= a */\n      gt\n      iszero\n        /* \"erc20/contracts/SafeMath.sol\":944:958  assert(b <= a) */\n      iszero\n      iszero\n      tag_97\n      jumpi\n      invalid\n    tag_97:\n        /* \"erc20/contracts/SafeMath.sol\":976:977  b */\n      dup2\n        /* \"erc20/contracts/SafeMath.sol\":972:973  a */\n      dup4\n        /* \"erc20/contracts/SafeMath.sol\":972:977  a - b */\n      sub\n        /* \"erc20/contracts/SafeMath.sol\":965:977  return a - b */\n      swap1\n      pop\n        /* \"erc20/contracts/SafeMath.sol\":870:983  function sub(uint256 a, uint256 b) internal pure returns (uint256) {\r... */\n      swap3\n      swap2\n      pop\n      pop\n      jump\t// out\n        /* \"erc20/contracts/SafeMath.sol\":1050:1183  function add(uint256 a, uint256 b) internal pure returns (uint256) {\r... */\n    tag_73:\n        /* \"erc20/contracts/SafeMath.sol\":1108:1115  uint256 */\n      0x0\n        /* \"erc20/contracts/SafeMath.sol\":1124:1133  uint256 c */\n      dup1\n        /* \"erc20/contracts/SafeMath.sol\":1140:1141  b */\n      dup3\n        /* \"erc20/contracts/SafeMath.sol\":1136:1137  a */\n      dup5\n        /* \"erc20/contracts/SafeMath.sol\":1136:1141  a + b */\n      add\n        /* \"erc20/contracts/SafeMath.sol\":1124:1141  uint256 c = a + b */\n      swap1\n      pop\n        /* \"erc20/contracts/SafeMath.sol\":1160:1161  a */\n      dup4\n        /* \"erc20/contracts/SafeMath.sol\":1155:1156  c */\n      dup2\n        /* \"erc20/contracts/SafeMath.sol\":1155:1161  c >= a */\n      lt\n      iszero\n        /* \"erc20/contracts/SafeMath.sol\":1148:1162  assert(c >= a) */\n      iszero\n      iszero\n      tag_99\n      jumpi\n      invalid\n    tag_99:\n        /* \"erc20/contracts/SafeMath.sol\":1176:1177  c */\n      dup1\n        /* \"erc20/contracts/SafeMath.sol\":1169:1177  return c */\n      swap2\n      pop\n        /* \"erc20/contracts/SafeMath.sol\":1050:1183  function add(uint256 a, uint256 b) internal pure returns (uint256) {\r... */\n      pop\n      swap3\n      swap2\n      pop\n      pop\n      jump\t// out\n        /* \"erc20/contracts/GameContract.sol\":151:453  function random() private view returns (uint) {\r... */\n    tag_93:\n        /* \"erc20/contracts/GameContract.sol\":191:195  uint */\n      0x0\n        /* \"erc20/contracts/GameContract.sol\":364:365  6 */\n      0x6\n        /* \"erc20/contracts/GameContract.sol\":293:309  block.difficulty */\n      difficulty\n        /* \"erc20/contracts/GameContract.sol\":311:326  block.timestamp */\n      timestamp\n        /* \"erc20/contracts/GameContract.sol\":345:360  block.timestamp */\n      timestamp\n        /* \"erc20/contracts/GameContract.sol\":328:344  block.difficulty */\n      difficulty\n        /* \"erc20/contracts/GameContract.sol\":328:360  block.difficulty+block.timestamp */\n      add\n        /* \"erc20/contracts/GameContract.sol\":276:361  abi.encodePacked(block.difficulty, block.timestamp, block.difficulty+block.timestamp) */\n      add(0x20, mload(0x40))\n      dup1\n      dup5\n      dup2\n      mstore\n      0x20\n      add\n      dup4\n      dup2\n      mstore\n      0x20\n      add\n      dup3\n      dup2\n      mstore\n      0x20\n      add\n      swap4\n      pop\n      pop\n      pop\n      pop\n      mload(0x40)\n        /* \"--CODEGEN--\":49:53   */\n      0x20\n        /* \"--CODEGEN--\":39:46   */\n      dup2\n        /* \"--CODEGEN--\":30:37   */\n      dup4\n        /* \"--CODEGEN--\":26:47   */\n      sub\n        /* \"--CODEGEN--\":22:54   */\n      sub\n        /* \"--CODEGEN--\":13:20   */\n      dup2\n        /* \"--CODEGEN--\":6:55   */\n      mstore\n        /* \"erc20/contracts/GameContract.sol\":276:361  abi.encodePacked(block.difficulty, block.timestamp, block.difficulty+block.timestamp) */\n      swap1\n      0x40\n      mstore\n        /* \"erc20/contracts/GameContract.sol\":266:362  keccak256(abi.encodePacked(block.difficulty, block.timestamp, block.difficulty+block.timestamp)) */\n      mload(0x40)\n      dup1\n      dup3\n      dup1\n      mload\n      swap1\n      0x20\n      add\n      swap1\n      dup1\n      dup4\n      dup4\n        /* \"--CODEGEN--\":36:189   */\n    tag_101:\n        /* \"--CODEGEN--\":66:68   */\n      0x20\n        /* \"--CODEGEN--\":61:64   */\n      dup4\n        /* \"--CODEGEN--\":58:69   */\n      lt\n        /* \"--CODEGEN--\":51:70   */\n      iszero\n        /* \"--CODEGEN--\":36:189   */\n      iszero\n      tag_102\n      jumpi\n        /* \"--CODEGEN--\":182:185   */\n      dup1\n        /* \"--CODEGEN--\":176:186   */\n      mload\n        /* \"--CODEGEN--\":171:174   */\n      dup3\n        /* \"--CODEGEN--\":164:187   */\n      mstore\n        /* \"--CODEGEN--\":98:100   */\n      0x20\n        /* \"--CODEGEN--\":93:96   */\n      dup3\n        /* \"--CODEGEN--\":89:101   */\n      add\n        /* \"--CODEGEN--\":82:101   */\n      swap2\n      pop\n        /* \"--CODEGEN--\":123:125   */\n      0x20\n        /* \"--CODEGEN--\":118:121   */\n      dup2\n        /* \"--CODEGEN--\":114:126   */\n      add\n        /* \"--CODEGEN--\":107:126   */\n      swap1\n      pop\n        /* \"--CODEGEN--\":148:150   */\n      0x20\n        /* \"--CODEGEN--\":143:146   */\n      dup4\n        /* \"--CODEGEN--\":139:151   */\n      sub\n        /* \"--CODEGEN--\":132:151   */\n      swap3\n      pop\n        /* \"--CODEGEN--\":36:189   */\n      jump(tag_101)\n    tag_102:\n        /* \"--CODEGEN--\":274:275   */\n      0x1\n        /* \"--CODEGEN--\":267:270   */\n      dup4\n        /* \"--CODEGEN--\":263:265   */\n      0x20\n        /* \"--CODEGEN--\":259:271   */\n      sub\n        /* \"--CODEGEN--\":254:257   */\n      0x100\n        /* \"--CODEGEN--\":250:272   */\n      exp\n        /* \"--CODEGEN--\":246:276   */\n      sub\n        /* \"--CODEGEN--\":315:319   */\n      dup1\n        /* \"--CODEGEN--\":311:320   */\n      not\n        /* \"--CODEGEN--\":305:308   */\n      dup3\n        /* \"--CODEGEN--\":299:309   */\n      mload\n        /* \"--CODEGEN--\":295:321   */\n      and\n        /* \"--CODEGEN--\":356:360   */\n      dup2\n        /* \"--CODEGEN--\":350:353   */\n      dup5\n        /* \"--CODEGEN--\":344:354   */\n      mload\n        /* \"--CODEGEN--\":340:361   */\n      and\n        /* \"--CODEGEN--\":389:396   */\n      dup1\n        /* \"--CODEGEN--\":380:387   */\n      dup3\n        /* \"--CODEGEN--\":377:397   */\n      or\n        /* \"--CODEGEN--\":372:375   */\n      dup6\n        /* \"--CODEGEN--\":365:398   */\n      mstore\n        /* \"--CODEGEN--\":3:402   */\n      pop\n      pop\n      pop\n        /* \"erc20/contracts/GameContract.sol\":266:362  keccak256(abi.encodePacked(block.difficulty, block.timestamp, block.difficulty+block.timestamp)) */\n      pop\n      pop\n      pop\n      swap1\n      pop\n      add\n      swap2\n      pop\n      pop\n      mload(0x40)\n      dup1\n      swap2\n      sub\n      swap1\n      keccak256\n        /* \"erc20/contracts/GameContract.sol\":261:363  uint(keccak256(abi.encodePacked(block.difficulty, block.timestamp, block.difficulty+block.timestamp))) */\n      0x1\n      swap1\n      div\n        /* \"erc20/contracts/GameContract.sol\":261:365  uint(keccak256(abi.encodePacked(block.difficulty, block.timestamp, block.difficulty+block.timestamp)))%6 */\n      dup2\n      iszero\n      iszero\n      tag_104\n      jumpi\n      invalid\n    tag_104:\n      mod\n        /* \"erc20/contracts/GameContract.sol\":254:365  return uint(keccak256(abi.encodePacked(block.difficulty, block.timestamp, block.difficulty+block.timestamp)))%6 */\n      swap1\n      pop\n        /* \"erc20/contracts/GameContract.sol\":151:453  function random() private view returns (uint) {\r... */\n      swap1\n      jump\t// out\n\n    auxdata: 0xa165627a7a72305820f1c28d9f48e40a31d82b19bdc03de827436c1ec465b65f9526aed6affdda53860029\n}\n",
				"bytecode": {
					"linkReferences": {},
					"object": "60806040526040805190810160405280600c81526020017f4578616d706c65546f6b656e0000000000000000000000000000000000000000815250600390805190602001906200005192919062000106565b506040805190810160405280600381526020017f4558540000000000000000000000000000000000000000000000000000000000815250600490805190602001906200009f92919062000106565b506012600555600554600a0a612710026006556006546007819055506006546000803373ffffffffffffffffffffffffffffffffffffffff1673ffffffffffffffffffffffffffffffffffffffff16815260200190815260200160002081905550620001b5565b828054600181600116156101000203166002900490600052602060002090601f016020900481019282601f106200014957805160ff19168380011785556200017a565b828001600101855582156200017a579182015b82811115620001795782518255916020019190600101906200015c565b5b5090506200018991906200018d565b5090565b620001b291905b80821115620001ae57600081600090555060010162000194565b5090565b90565b6114fa80620001c56000396000f3006080604052600436106100c5576000357c0100000000000000000000000000000000000000000000000000000000900463ffffffff16806306fdde03146100ca578063095ea7b31461015a57806318160ddd146101bf57806323b872dd146101ea5780632ff2e9dc1461026f578063313ce5671461029a57806366188463146102c557806370a082311461032a57806395d89b4114610381578063a9059cbb14610411578063d73dd62314610476578063dd62ed3e146104db578063ff776b9c14610552575b600080fd5b3480156100d657600080fd5b506100df610569565b6040518080602001828103825283818151815260200191508051906020019080838360005b8381101561011f578082015181840152602081019050610104565b50505050905090810190601f16801561014c5780820380516001836020036101000a031916815260200191505b509250505060405180910390f35b34801561016657600080fd5b506101a5600480360381019080803573ffffffffffffffffffffffffffffffffffffffff16906020019092919080359060200190929190505050610607565b604051808215151515815260200191505060405180910390f35b3480156101cb57600080fd5b506101d46106f9565b6040518082815260200191505060405180910390f35b3480156101f657600080fd5b50610255600480360381019080803573ffffffffffffffffffffffffffffffffffffffff169060200190929190803573ffffffffffffffffffffffffffffffffffffffff169060200190929190803590602001909291905050506106ff565b604051808215151515815260200191505060405180910390f35b34801561027b57600080fd5b50610284610ab9565b6040518082815260200191505060405180910390f35b3480156102a657600080fd5b506102af610abf565b6040518082815260200191505060405180910390f35b3480156102d157600080fd5b50610310600480360381019080803573ffffffffffffffffffffffffffffffffffffffff16906020019092919080359060200190929190505050610ac5565b604051808215151515815260200191505060405180910390f35b34801561033657600080fd5b5061036b600480360381019080803573ffffffffffffffffffffffffffffffffffffffff169060200190929190505050610d56565b6040518082815260200191505060405180910390f35b34801561038d57600080fd5b50610396610d9e565b6040518080602001828103825283818151815260200191508051906020019080838360005b838110156103d65780820151818401526020810190506103bb565b50505050905090810190601f1680156104035780820380516001836020036101000a031916815260200191505b509250505060405180910390f35b34801561041d57600080fd5b5061045c600480360381019080803573ffffffffffffffffffffffffffffffffffffffff16906020019092919080359060200190929190505050610e3c565b604051808215151515815260200191505060405180910390f35b34801561048257600080fd5b506104c1600480360381019080803573ffffffffffffffffffffffffffffffffffffffff1690602001909291908035906020019092919050505061105b565b604051808215151515815260200191505060405180910390f35b3480156104e757600080fd5b5061053c600480360381019080803573ffffffffffffffffffffffffffffffffffffffff169060200190929190803573ffffffffffffffffffffffffffffffffffffffff169060200190929190505050611257565b6040518082815260200191505060405180910390f35b34801561055e57600080fd5b506105676112de565b005b60038054600181600116156101000203166002900480601f0160208091040260200160405190810160405280929190818152602001828054600181600116156101000203166002900480156105ff5780601f106105d4576101008083540402835291602001916105ff565b820191906000526020600020905b8154815290600101906020018083116105e257829003601f168201915b505050505081565b600081600260003373ffffffffffffffffffffffffffffffffffffffff1673ffffffffffffffffffffffffffffffffffffffff16815260200190815260200160002060008573ffffffffffffffffffffffffffffffffffffffff1673ffffffffffffffffffffffffffffffffffffffff168152602001908152602001600020819055508273ffffffffffffffffffffffffffffffffffffffff163373ffffffffffffffffffffffffffffffffffffffff167f8c5be1e5ebec7d5bd14f71427d1e84f3dd0314c0f7b2291e5b200ac8c7c3b925846040518082815260200191505060405180910390a36001905092915050565b60075481565b60008073ffffffffffffffffffffffffffffffffffffffff168373ffffffffffffffffffffffffffffffffffffffff161415151561073c57600080fd5b6000808573ffffffffffffffffffffffffffffffffffffffff1673ffffffffffffffffffffffffffffffffffffffff16815260200190815260200160002054821115151561078957600080fd5b600260008573ffffffffffffffffffffffffffffffffffffffff1673ffffffffffffffffffffffffffffffffffffffff16815260200190815260200160002060003373ffffffffffffffffffffffffffffffffffffffff1673ffffffffffffffffffffffffffffffffffffffff16815260200190815260200160002054821115151561081457600080fd5b610865826000808773ffffffffffffffffffffffffffffffffffffffff1673ffffffffffffffffffffffffffffffffffffffff168152602001908152602001600020546113ec90919063ffffffff16565b6000808673ffffffffffffffffffffffffffffffffffffffff1673ffffffffffffffffffffffffffffffffffffffff168152602001908152602001600020819055506108f8826000808673ffffffffffffffffffffffffffffffffffffffff1673ffffffffffffffffffffffffffffffffffffffff1681526020019081526020016000205461140590919063ffffffff16565b6000808573ffffffffffffffffffffffffffffffffffffffff1673ffffffffffffffffffffffffffffffffffffffff168152602001908152602001600020819055506109c982600260008773ffffffffffffffffffffffffffffffffffffffff1673ffffffffffffffffffffffffffffffffffffffff16815260200190815260200160002060003373ffffffffffffffffffffffffffffffffffffffff1673ffffffffffffffffffffffffffffffffffffffff168152602001908152602001600020546113ec90919063ffffffff16565b600260008673ffffffffffffffffffffffffffffffffffffffff1673ffffffffffffffffffffffffffffffffffffffff16815260200190815260200160002060003373ffffffffffffffffffffffffffffffffffffffff1673ffffffffffffffffffffffffffffffffffffffff168152602001908152602001600020819055508273ffffffffffffffffffffffffffffffffffffffff168473ffffffffffffffffffffffffffffffffffffffff167fddf252ad1be2c89b69c2b068fc378daa952ba7f163c4a11628f55a4df523b3ef846040518082815260200191505060405180910390a3600190509392505050565b60065481565b60055481565b600080600260003373ffffffffffffffffffffffffffffffffffffffff1673ffffffffffffffffffffffffffffffffffffffff16815260200190815260200160002060008573ffffffffffffffffffffffffffffffffffffffff1673ffffffffffffffffffffffffffffffffffffffff16815260200190815260200160002054905080831115610bd6576000600260003373ffffffffffffffffffffffffffffffffffffffff1673ffffffffffffffffffffffffffffffffffffffff16815260200190815260200160002060008673ffffffffffffffffffffffffffffffffffffffff1673ffffffffffffffffffffffffffffffffffffffff16815260200190815260200160002081905550610c6a565b610be983826113ec90919063ffffffff16565b600260003373ffffffffffffffffffffffffffffffffffffffff1673ffffffffffffffffffffffffffffffffffffffff16815260200190815260200160002060008673ffffffffffffffffffffffffffffffffffffffff1673ffffffffffffffffffffffffffffffffffffffff168152602001908152602001600020819055505b8373ffffffffffffffffffffffffffffffffffffffff163373ffffffffffffffffffffffffffffffffffffffff167f8c5be1e5ebec7d5bd14f71427d1e84f3dd0314c0f7b2291e5b200ac8c7c3b925600260003373ffffffffffffffffffffffffffffffffffffffff1673ffffffffffffffffffffffffffffffffffffffff16815260200190815260200160002060008873ffffffffffffffffffffffffffffffffffffffff1673ffffffffffffffffffffffffffffffffffffffff168152602001908152602001600020546040518082815260200191505060405180910390a3600191505092915050565b60008060008373ffffffffffffffffffffffffffffffffffffffff1673ffffffffffffffffffffffffffffffffffffffff168152602001908152602001600020549050919050565b60048054600181600116156101000203166002900480601f016020809104026020016040519081016040528092919081815260200182805460018160011615610100020316600290048015610e345780601f10610e0957610100808354040283529160200191610e34565b820191906000526020600020905b815481529060010190602001808311610e1757829003601f168201915b505050505081565b60008073ffffffffffffffffffffffffffffffffffffffff168373ffffffffffffffffffffffffffffffffffffffff1614151515610e7957600080fd5b6000803373ffffffffffffffffffffffffffffffffffffffff1673ffffffffffffffffffffffffffffffffffffffff168152602001908152602001600020548211151515610ec657600080fd5b610f17826000803373ffffffffffffffffffffffffffffffffffffffff1673ffffffffffffffffffffffffffffffffffffffff168152602001908152602001600020546113ec90919063ffffffff16565b6000803373ffffffffffffffffffffffffffffffffffffffff1673ffffffffffffffffffffffffffffffffffffffff16815260200190815260200160002081905550610faa826000808673ffffffffffffffffffffffffffffffffffffffff1673ffffffffffffffffffffffffffffffffffffffff1681526020019081526020016000205461140590919063ffffffff16565b6000808573ffffffffffffffffffffffffffffffffffffffff1673ffffffffffffffffffffffffffffffffffffffff168152602001908152602001600020819055508273ffffffffffffffffffffffffffffffffffffffff163373ffffffffffffffffffffffffffffffffffffffff167fddf252ad1be2c89b69c2b068fc378daa952ba7f163c4a11628f55a4df523b3ef846040518082815260200191505060405180910390a36001905092915050565b60006110ec82600260003373ffffffffffffffffffffffffffffffffffffffff1673ffffffffffffffffffffffffffffffffffffffff16815260200190815260200160002060008673ffffffffffffffffffffffffffffffffffffffff1673ffffffffffffffffffffffffffffffffffffffff1681526020019081526020016000205461140590919063ffffffff16565b600260003373ffffffffffffffffffffffffffffffffffffffff1673ffffffffffffffffffffffffffffffffffffffff16815260200190815260200160002060008573ffffffffffffffffffffffffffffffffffffffff1673ffffffffffffffffffffffffffffffffffffffff168152602001908152602001600020819055508273ffffffffffffffffffffffffffffffffffffffff163373ffffffffffffffffffffffffffffffffffffffff167f8c5be1e5ebec7d5bd14f71427d1e84f3dd0314c0f7b2291e5b200ac8c7c3b925600260003373ffffffffffffffffffffffffffffffffffffffff1673ffffffffffffffffffffffffffffffffffffffff16815260200190815260200160002060008773ffffffffffffffffffffffffffffffffffffffff1673ffffffffffffffffffffffffffffffffffffffff168152602001908152602001600020546040518082815260200191505060405180910390a36001905092915050565b6000600260008473ffffffffffffffffffffffffffffffffffffffff1673ffffffffffffffffffffffffffffffffffffffff16815260200190815260200160002060008373ffffffffffffffffffffffffffffffffffffffff1673ffffffffffffffffffffffffffffffffffffffff16815260200190815260200160002054905092915050565b60006112e8611423565b90506001811415611370577f50c1333027ff7c6d25a47998f498b8d06b7b2d02e5408ef0a5b5f42d22e8d8d933826001604051808473ffffffffffffffffffffffffffffffffffffffff1673ffffffffffffffffffffffffffffffffffffffff16815260200183815260200182151515158152602001935050505060405180910390a16113e9565b7f50c1333027ff7c6d25a47998f498b8d06b7b2d02e5408ef0a5b5f42d22e8d8d933826000604051808473ffffffffffffffffffffffffffffffffffffffff1673ffffffffffffffffffffffffffffffffffffffff16815260200183815260200182151515158152602001935050505060405180910390a15b50565b60008282111515156113fa57fe5b818303905092915050565b600080828401905083811015151561141957fe5b8091505092915050565b6000600644424244016040516020018084815260200183815260200182815260200193505050506040516020818303038152906040526040518082805190602001908083835b60208310151561148e5780518252602082019150602081019050602083039250611469565b6001836020036101000a0380198251168184511680821785525050505050509050019150506040518091039020600190048115156114c857fe5b069050905600a165627a7a72305820f1c28d9f48e40a31d82b19bdc03de827436c1ec465b65f9526aed6affdda53860029",
					"opcodes": "PUSH1 0x80 PUSH1 0x40 MSTORE PUSH1 0x40 DUP1 MLOAD SWAP1 DUP2 ADD PUSH1 0x40 MSTORE DUP1 PUSH1 0xC DUP2 MSTORE PUSH1 0x20 ADD PUSH32 0x4578616D706C65546F6B656E0000000000000000000000000000000000000000 DUP2 MSTORE POP PUSH1 0x3 SWAP1 DUP1 MLOAD SWAP1 PUSH1 0x20 ADD SWAP1 PUSH3 0x51 SWAP3 SWAP2 SWAP1 PUSH3 0x106 JUMP JUMPDEST POP PUSH1 0x40 DUP1 MLOAD SWAP1 DUP2 ADD PUSH1 0x40 MSTORE DUP1 PUSH1 0x3 DUP2 MSTORE PUSH1 0x20 ADD PUSH32 0x4558540000000000000000000000000000000000000000000000000000000000 DUP2 MSTORE POP PUSH1 0x4 SWAP1 DUP1 MLOAD SWAP1 PUSH1 0x20 ADD SWAP1 PUSH3 0x9F SWAP3 SWAP2 SWAP1 PUSH3 0x106 JUMP JUMPDEST POP PUSH1 0x12 PUSH1 0x5 SSTORE PUSH1 0x5 SLOAD PUSH1 0xA EXP PUSH2 0x2710 MUL PUSH1 0x6 SSTORE PUSH1 0x6 SLOAD PUSH1 0x7 DUP2 SWAP1 SSTORE POP PUSH1 0x6 SLOAD PUSH1 0x0 DUP1 CALLER PUSH20 0xFFFFFFFFFFFFFFFFFFFFFFFFFFFFFFFFFFFFFFFF AND PUSH20 0xFFFFFFFFFFFFFFFFFFFFFFFFFFFFFFFFFFFFFFFF AND DUP2 MSTORE PUSH1 0x20 ADD SWAP1 DUP2 MSTORE PUSH1 0x20 ADD PUSH1 0x0 KECCAK256 DUP2 SWAP1 SSTORE POP PUSH3 0x1B5 JUMP JUMPDEST DUP3 DUP1 SLOAD PUSH1 0x1 DUP2 PUSH1 0x1 AND ISZERO PUSH2 0x100 MUL SUB AND PUSH1 0x2 SWAP1 DIV SWAP1 PUSH1 0x0 MSTORE PUSH1 0x20 PUSH1 0x0 KECCAK256 SWAP1 PUSH1 0x1F ADD PUSH1 0x20 SWAP1 DIV DUP2 ADD SWAP3 DUP3 PUSH1 0x1F LT PUSH3 0x149 JUMPI DUP1 MLOAD PUSH1 0xFF NOT AND DUP4 DUP1 ADD OR DUP6 SSTORE PUSH3 0x17A JUMP JUMPDEST DUP3 DUP1 ADD PUSH1 0x1 ADD DUP6 SSTORE DUP3 ISZERO PUSH3 0x17A JUMPI SWAP2 DUP3 ADD JUMPDEST DUP3 DUP2 GT ISZERO PUSH3 0x179 JUMPI DUP3 MLOAD DUP3 SSTORE SWAP2 PUSH1 0x20 ADD SWAP2 SWAP1 PUSH1 0x1 ADD SWAP1 PUSH3 0x15C JUMP JUMPDEST JUMPDEST POP SWAP1 POP PUSH3 0x189 SWAP2 SWAP1 PUSH3 0x18D JUMP JUMPDEST POP SWAP1 JUMP JUMPDEST PUSH3 0x1B2 SWAP2 SWAP1 JUMPDEST DUP1 DUP3 GT ISZERO PUSH3 0x1AE JUMPI PUSH1 0x0 DUP2 PUSH1 0x0 SWAP1 SSTORE POP PUSH1 0x1 ADD PUSH3 0x194 JUMP JUMPDEST POP SWAP1 JUMP JUMPDEST SWAP1 JUMP JUMPDEST PUSH2 0x14FA DUP1 PUSH3 0x1C5 PUSH1 0x0 CODECOPY PUSH1 0x0 RETURN STOP PUSH1 0x80 PUSH1 0x40 MSTORE PUSH1 0x4 CALLDATASIZE LT PUSH2 0xC5 JUMPI PUSH1 0x0 CALLDATALOAD PUSH29 0x100000000000000000000000000000000000000000000000000000000 SWAP1 DIV PUSH4 0xFFFFFFFF AND DUP1 PUSH4 0x6FDDE03 EQ PUSH2 0xCA JUMPI DUP1 PUSH4 0x95EA7B3 EQ PUSH2 0x15A JUMPI DUP1 PUSH4 0x18160DDD EQ PUSH2 0x1BF JUMPI DUP1 PUSH4 0x23B872DD EQ PUSH2 0x1EA JUMPI DUP1 PUSH4 0x2FF2E9DC EQ PUSH2 0x26F JUMPI DUP1 PUSH4 0x313CE567 EQ PUSH2 0x29A JUMPI DUP1 PUSH4 0x66188463 EQ PUSH2 0x2C5 JUMPI DUP1 PUSH4 0x70A08231 EQ PUSH2 0x32A JUMPI DUP1 PUSH4 0x95D89B41 EQ PUSH2 0x381 JUMPI DUP1 PUSH4 0xA9059CBB EQ PUSH2 0x411 JUMPI DUP1 PUSH4 0xD73DD623 EQ PUSH2 0x476 JUMPI DUP1 PUSH4 0xDD62ED3E EQ PUSH2 0x4DB JUMPI DUP1 PUSH4 0xFF776B9C EQ PUSH2 0x552 JUMPI JUMPDEST PUSH1 0x0 DUP1 REVERT JUMPDEST CALLVALUE DUP1 ISZERO PUSH2 0xD6 JUMPI PUSH1 0x0 DUP1 REVERT JUMPDEST POP PUSH2 0xDF PUSH2 0x569 JUMP JUMPDEST PUSH1 0x40 MLOAD DUP1 DUP1 PUSH1 0x20 ADD DUP3 DUP2 SUB DUP3 MSTORE DUP4 DUP2 DUP2 MLOAD DUP2 MSTORE PUSH1 0x20 ADD SWAP2 POP DUP1 MLOAD SWAP1 PUSH1 0x20 ADD SWAP1 DUP1 DUP4 DUP4 PUSH1 0x0 JUMPDEST DUP4 DUP2 LT ISZERO PUSH2 0x11F JUMPI DUP1 DUP3 ADD MLOAD DUP2 DUP5 ADD MSTORE PUSH1 0x20 DUP2 ADD SWAP1 POP PUSH2 0x104 JUMP JUMPDEST POP POP POP POP SWAP1 POP SWAP1 DUP2 ADD SWAP1 PUSH1 0x1F AND DUP1 ISZERO PUSH2 0x14C JUMPI DUP1 DUP3 SUB DUP1 MLOAD PUSH1 0x1 DUP4 PUSH1 0x20 SUB PUSH2 0x100 EXP SUB NOT AND DUP2 MSTORE PUSH1 0x20 ADD SWAP2 POP JUMPDEST POP SWAP3 POP POP POP PUSH1 0x40 MLOAD DUP1 SWAP2 SUB SWAP1 RETURN JUMPDEST CALLVALUE DUP1 ISZERO PUSH2 0x166 JUMPI PUSH1 0x0 DUP1 REVERT JUMPDEST POP PUSH2 0x1A5 PUSH1 0x4 DUP1 CALLDATASIZE SUB DUP2 ADD SWAP1 DUP1 DUP1 CALLDATALOAD PUSH20 0xFFFFFFFFFFFFFFFFFFFFFFFFFFFFFFFFFFFFFFFF AND SWAP1 PUSH1 0x20 ADD SWAP1 SWAP3 SWAP2 SWAP1 DUP1 CALLDATALOAD SWAP1 PUSH1 0x20 ADD SWAP1 SWAP3 SWAP2 SWAP1 POP POP POP PUSH2 0x607 JUMP JUMPDEST PUSH1 0x40 MLOAD DUP1 DUP3 ISZERO ISZERO ISZERO ISZERO DUP2 MSTORE PUSH1 0x20 ADD SWAP2 POP POP PUSH1 0x40 MLOAD DUP1 SWAP2 SUB SWAP1 RETURN JUMPDEST CALLVALUE DUP1 ISZERO PUSH2 0x1CB JUMPI PUSH1 0x0 DUP1 REVERT JUMPDEST POP PUSH2 0x1D4 PUSH2 0x6F9 JUMP JUMPDEST PUSH1 0x40 MLOAD DUP1 DUP3 DUP2 MSTORE PUSH1 0x20 ADD SWAP2 POP POP PUSH1 0x40 MLOAD DUP1 SWAP2 SUB SWAP1 RETURN JUMPDEST CALLVALUE DUP1 ISZERO PUSH2 0x1F6 JUMPI PUSH1 0x0 DUP1 REVERT JUMPDEST POP PUSH2 0x255 PUSH1 0x4 DUP1 CALLDATASIZE SUB DUP2 ADD SWAP1 DUP1 DUP1 CALLDATALOAD PUSH20 0xFFFFFFFFFFFFFFFFFFFFFFFFFFFFFFFFFFFFFFFF AND SWAP1 PUSH1 0x20 ADD SWAP1 SWAP3 SWAP2 SWAP1 DUP1 CALLDATALOAD PUSH20 0xFFFFFFFFFFFFFFFFFFFFFFFFFFFFFFFFFFFFFFFF AND SWAP1 PUSH1 0x20 ADD SWAP1 SWAP3 SWAP2 SWAP1 DUP1 CALLDATALOAD SWAP1 PUSH1 0x20 ADD SWAP1 SWAP3 SWAP2 SWAP1 POP POP POP PUSH2 0x6FF JUMP JUMPDEST PUSH1 0x40 MLOAD DUP1 DUP3 ISZERO ISZERO ISZERO ISZERO DUP2 MSTORE PUSH1 0x20 ADD SWAP2 POP POP PUSH1 0x40 MLOAD DUP1 SWAP2 SUB SWAP1 RETURN JUMPDEST CALLVALUE DUP1 ISZERO PUSH2 0x27B JUMPI PUSH1 0x0 DUP1 REVERT JUMPDEST POP PUSH2 0x284 PUSH2 0xAB9 JUMP JUMPDEST PUSH1 0x40 MLOAD DUP1 DUP3 DUP2 MSTORE PUSH1 0x20 ADD SWAP2 POP POP PUSH1 0x40 MLOAD DUP1 SWAP2 SUB SWAP1 RETURN JUMPDEST CALLVALUE DUP1 ISZERO PUSH2 0x2A6 JUMPI PUSH1 0x0 DUP1 REVERT JUMPDEST POP PUSH2 0x2AF PUSH2 0xABF JUMP JUMPDEST PUSH1 0x40 MLOAD DUP1 DUP3 DUP2 MSTORE PUSH1 0x20 ADD SWAP2 POP POP PUSH1 0x40 MLOAD DUP1 SWAP2 SUB SWAP1 RETURN JUMPDEST CALLVALUE DUP1 ISZERO PUSH2 0x2D1 JUMPI PUSH1 0x0 DUP1 REVERT JUMPDEST POP PUSH2 0x310 PUSH1 0x4 DUP1 CALLDATASIZE SUB DUP2 ADD SWAP1 DUP1 DUP1 CALLDATALOAD PUSH20 0xFFFFFFFFFFFFFFFFFFFFFFFFFFFFFFFFFFFFFFFF AND SWAP1 PUSH1 0x20 ADD SWAP1 SWAP3 SWAP2 SWAP1 DUP1 CALLDATALOAD SWAP1 PUSH1 0x20 ADD SWAP1 SWAP3 SWAP2 SWAP1 POP POP POP PUSH2 0xAC5 JUMP JUMPDEST PUSH1 0x40 MLOAD DUP1 DUP3 ISZERO ISZERO ISZERO ISZERO DUP2 MSTORE PUSH1 0x20 ADD SWAP2 POP POP PUSH1 0x40 MLOAD DUP1 SWAP2 SUB SWAP1 RETURN JUMPDEST CALLVALUE DUP1 ISZERO PUSH2 0x336 JUMPI PUSH1 0x0 DUP1 REVERT JUMPDEST POP PUSH2 0x36B PUSH1 0x4 DUP1 CALLDATASIZE SUB DUP2 ADD SWAP1 DUP1 DUP1 CALLDATALOAD PUSH20 0xFFFFFFFFFFFFFFFFFFFFFFFFFFFFFFFFFFFFFFFF AND SWAP1 PUSH1 0x20 ADD SWAP1 SWAP3 SWAP2 SWAP1 POP POP POP PUSH2 0xD56 JUMP JUMPDEST PUSH1 0x40 MLOAD DUP1 DUP3 DUP2 MSTORE PUSH1 0x20 ADD SWAP2 POP POP PUSH1 0x40 MLOAD DUP1 SWAP2 SUB SWAP1 RETURN JUMPDEST CALLVALUE DUP1 ISZERO PUSH2 0x38D JUMPI PUSH1 0x0 DUP1 REVERT JUMPDEST POP PUSH2 0x396 PUSH2 0xD9E JUMP JUMPDEST PUSH1 0x40 MLOAD DUP1 DUP1 PUSH1 0x20 ADD DUP3 DUP2 SUB DUP3 MSTORE DUP4 DUP2 DUP2 MLOAD DUP2 MSTORE PUSH1 0x20 ADD SWAP2 POP DUP1 MLOAD SWAP1 PUSH1 0x20 ADD SWAP1 DUP1 DUP4 DUP4 PUSH1 0x0 JUMPDEST DUP4 DUP2 LT ISZERO PUSH2 0x3D6 JUMPI DUP1 DUP3 ADD MLOAD DUP2 DUP5 ADD MSTORE PUSH1 0x20 DUP2 ADD SWAP1 POP PUSH2 0x3BB JUMP JUMPDEST POP POP POP POP SWAP1 POP SWAP1 DUP2 ADD SWAP1 PUSH1 0x1F AND DUP1 ISZERO PUSH2 0x403 JUMPI DUP1 DUP3 SUB DUP1 MLOAD PUSH1 0x1 DUP4 PUSH1 0x20 SUB PUSH2 0x100 EXP SUB NOT AND DUP2 MSTORE PUSH1 0x20 ADD SWAP2 POP JUMPDEST POP SWAP3 POP POP POP PUSH1 0x40 MLOAD DUP1 SWAP2 SUB SWAP1 RETURN JUMPDEST CALLVALUE DUP1 ISZERO PUSH2 0x41D JUMPI PUSH1 0x0 DUP1 REVERT JUMPDEST POP PUSH2 0x45C PUSH1 0x4 DUP1 CALLDATASIZE SUB DUP2 ADD SWAP1 DUP1 DUP1 CALLDATALOAD PUSH20 0xFFFFFFFFFFFFFFFFFFFFFFFFFFFFFFFFFFFFFFFF AND SWAP1 PUSH1 0x20 ADD SWAP1 SWAP3 SWAP2 SWAP1 DUP1 CALLDATALOAD SWAP1 PUSH1 0x20 ADD SWAP1 SWAP3 SWAP2 SWAP1 POP POP POP PUSH2 0xE3C JUMP JUMPDEST PUSH1 0x40 MLOAD DUP1 DUP3 ISZERO ISZERO ISZERO ISZERO DUP2 MSTORE PUSH1 0x20 ADD SWAP2 POP POP PUSH1 0x40 MLOAD DUP1 SWAP2 SUB SWAP1 RETURN JUMPDEST CALLVALUE DUP1 ISZERO PUSH2 0x482 JUMPI PUSH1 0x0 DUP1 REVERT JUMPDEST POP PUSH2 0x4C1 PUSH1 0x4 DUP1 CALLDATASIZE SUB DUP2 ADD SWAP1 DUP1 DUP1 CALLDATALOAD PUSH20 0xFFFFFFFFFFFFFFFFFFFFFFFFFFFFFFFFFFFFFFFF AND SWAP1 PUSH1 0x20 ADD SWAP1 SWAP3 SWAP2 SWAP1 DUP1 CALLDATALOAD SWAP1 PUSH1 0x20 ADD SWAP1 SWAP3 SWAP2 SWAP1 POP POP POP PUSH2 0x105B JUMP JUMPDEST PUSH1 0x40 MLOAD DUP1 DUP3 ISZERO ISZERO ISZERO ISZERO DUP2 MSTORE PUSH1 0x20 ADD SWAP2 POP POP PUSH1 0x40 MLOAD DUP1 SWAP2 SUB SWAP1 RETURN JUMPDEST CALLVALUE DUP1 ISZERO PUSH2 0x4E7 JUMPI PUSH1 0x0 DUP1 REVERT JUMPDEST POP PUSH2 0x53C PUSH1 0x4 DUP1 CALLDATASIZE SUB DUP2 ADD SWAP1 DUP1 DUP1 CALLDATALOAD PUSH20 0xFFFFFFFFFFFFFFFFFFFFFFFFFFFFFFFFFFFFFFFF AND SWAP1 PUSH1 0x20 ADD SWAP1 SWAP3 SWAP2 SWAP1 DUP1 CALLDATALOAD PUSH20 0xFFFFFFFFFFFFFFFFFFFFFFFFFFFFFFFFFFFFFFFF AND SWAP1 PUSH1 0x20 ADD SWAP1 SWAP3 SWAP2 SWAP1 POP POP POP PUSH2 0x1257 JUMP JUMPDEST PUSH1 0x40 MLOAD DUP1 DUP3 DUP2 MSTORE PUSH1 0x20 ADD SWAP2 POP POP PUSH1 0x40 MLOAD DUP1 SWAP2 SUB SWAP1 RETURN JUMPDEST CALLVALUE DUP1 ISZERO PUSH2 0x55E JUMPI PUSH1 0x0 DUP1 REVERT JUMPDEST POP PUSH2 0x567 PUSH2 0x12DE JUMP JUMPDEST STOP JUMPDEST PUSH1 0x3 DUP1 SLOAD PUSH1 0x1 DUP2 PUSH1 0x1 AND ISZERO PUSH2 0x100 MUL SUB AND PUSH1 0x2 SWAP1 DIV DUP1 PUSH1 0x1F ADD PUSH1 0x20 DUP1 SWAP2 DIV MUL PUSH1 0x20 ADD PUSH1 0x40 MLOAD SWAP1 DUP2 ADD PUSH1 0x40 MSTORE DUP1 SWAP3 SWAP2 SWAP1 DUP2 DUP2 MSTORE PUSH1 0x20 ADD DUP3 DUP1 SLOAD PUSH1 0x1 DUP2 PUSH1 0x1 AND ISZERO PUSH2 0x100 MUL SUB AND PUSH1 0x2 SWAP1 DIV DUP1 ISZERO PUSH2 0x5FF JUMPI DUP1 PUSH1 0x1F LT PUSH2 0x5D4 JUMPI PUSH2 0x100 DUP1 DUP4 SLOAD DIV MUL DUP4 MSTORE SWAP2 PUSH1 0x20 ADD SWAP2 PUSH2 0x5FF JUMP JUMPDEST DUP3 ADD SWAP2 SWAP1 PUSH1 0x0 MSTORE PUSH1 0x20 PUSH1 0x0 KECCAK256 SWAP1 JUMPDEST DUP2 SLOAD DUP2 MSTORE SWAP1 PUSH1 0x1 ADD SWAP1 PUSH1 0x20 ADD DUP1 DUP4 GT PUSH2 0x5E2 JUMPI DUP3 SWAP1 SUB PUSH1 0x1F AND DUP3 ADD SWAP2 JUMPDEST POP POP POP POP POP DUP2 JUMP JUMPDEST PUSH1 0x0 DUP2 PUSH1 0x2 PUSH1 0x0 CALLER PUSH20 0xFFFFFFFFFFFFFFFFFFFFFFFFFFFFFFFFFFFFFFFF AND PUSH20 0xFFFFFFFFFFFFFFFFFFFFFFFFFFFFFFFFFFFFFFFF AND DUP2 MSTORE PUSH1 0x20 ADD SWAP1 DUP2 MSTORE PUSH1 0x20 ADD PUSH1 0x0 KECCAK256 PUSH1 0x0 DUP6 PUSH20 0xFFFFFFFFFFFFFFFFFFFFFFFFFFFFFFFFFFFFFFFF AND PUSH20 0xFFFFFFFFFFFFFFFFFFFFFFFFFFFFFFFFFFFFFFFF AND DUP2 MSTORE PUSH1 0x20 ADD SWAP1 DUP2 MSTORE PUSH1 0x20 ADD PUSH1 0x0 KECCAK256 DUP2 SWAP1 SSTORE POP DUP3 PUSH20 0xFFFFFFFFFFFFFFFFFFFFFFFFFFFFFFFFFFFFFFFF AND CALLER PUSH20 0xFFFFFFFFFFFFFFFFFFFFFFFFFFFFFFFFFFFFFFFF AND PUSH32 0x8C5BE1E5EBEC7D5BD14F71427D1E84F3DD0314C0F7B2291E5B200AC8C7C3B925 DUP5 PUSH1 0x40 MLOAD DUP1 DUP3 DUP2 MSTORE PUSH1 0x20 ADD SWAP2 POP POP PUSH1 0x40 MLOAD DUP1 SWAP2 SUB SWAP1 LOG3 PUSH1 0x1 SWAP1 POP SWAP3 SWAP2 POP POP JUMP JUMPDEST PUSH1 0x7 SLOAD DUP2 JUMP JUMPDEST PUSH1 0x0 DUP1 PUSH20 0xFFFFFFFFFFFFFFFFFFFFFFFFFFFFFFFFFFFFFFFF AND DUP4 PUSH20 0xFFFFFFFFFFFFFFFFFFFFFFFFFFFFFFFFFFFFFFFF AND EQ ISZERO ISZERO ISZERO PUSH2 0x73C JUMPI PUSH1 0x0 DUP1 REVERT JUMPDEST PUSH1 0x0 DUP1 DUP6 PUSH20 0xFFFFFFFFFFFFFFFFFFFFFFFFFFFFFFFFFFFFFFFF AND PUSH20 0xFFFFFFFFFFFFFFFFFFFFFFFFFFFFFFFFFFFFFFFF AND DUP2 MSTORE PUSH1 0x20 ADD SWAP1 DUP2 MSTORE PUSH1 0x20 ADD PUSH1 0x0 KECCAK256 SLOAD DUP3 GT ISZERO ISZERO ISZERO PUSH2 0x789 JUMPI PUSH1 0x0 DUP1 REVERT JUMPDEST PUSH1 0x2 PUSH1 0x0 DUP6 PUSH20 0xFFFFFFFFFFFFFFFFFFFFFFFFFFFFFFFFFFFFFFFF AND PUSH20 0xFFFFFFFFFFFFFFFFFFFFFFFFFFFFFFFFFFFFFFFF AND DUP2 MSTORE PUSH1 0x20 ADD SWAP1 DUP2 MSTORE PUSH1 0x20 ADD PUSH1 0x0 KECCAK256 PUSH1 0x0 CALLER PUSH20 0xFFFFFFFFFFFFFFFFFFFFFFFFFFFFFFFFFFFFFFFF AND PUSH20 0xFFFFFFFFFFFFFFFFFFFFFFFFFFFFFFFFFFFFFFFF AND DUP2 MSTORE PUSH1 0x20 ADD SWAP1 DUP2 MSTORE PUSH1 0x20 ADD PUSH1 0x0 KECCAK256 SLOAD DUP3 GT ISZERO ISZERO ISZERO PUSH2 0x814 JUMPI PUSH1 0x0 DUP1 REVERT JUMPDEST PUSH2 0x865 DUP3 PUSH1 0x0 DUP1 DUP8 PUSH20 0xFFFFFFFFFFFFFFFFFFFFFFFFFFFFFFFFFFFFFFFF AND PUSH20 0xFFFFFFFFFFFFFFFFFFFFFFFFFFFFFFFFFFFFFFFF AND DUP2 MSTORE PUSH1 0x20 ADD SWAP1 DUP2 MSTORE PUSH1 0x20 ADD PUSH1 0x0 KECCAK256 SLOAD PUSH2 0x13EC SWAP1 SWAP2 SWAP1 PUSH4 0xFFFFFFFF AND JUMP JUMPDEST PUSH1 0x0 DUP1 DUP7 PUSH20 0xFFFFFFFFFFFFFFFFFFFFFFFFFFFFFFFFFFFFFFFF AND PUSH20 0xFFFFFFFFFFFFFFFFFFFFFFFFFFFFFFFFFFFFFFFF AND DUP2 MSTORE PUSH1 0x20 ADD SWAP1 DUP2 MSTORE PUSH1 0x20 ADD PUSH1 0x0 KECCAK256 DUP2 SWAP1 SSTORE POP PUSH2 0x8F8 DUP3 PUSH1 0x0 DUP1 DUP7 PUSH20 0xFFFFFFFFFFFFFFFFFFFFFFFFFFFFFFFFFFFFFFFF AND PUSH20 0xFFFFFFFFFFFFFFFFFFFFFFFFFFFFFFFFFFFFFFFF AND DUP2 MSTORE PUSH1 0x20 ADD SWAP1 DUP2 MSTORE PUSH1 0x20 ADD PUSH1 0x0 KECCAK256 SLOAD PUSH2 0x1405 SWAP1 SWAP2 SWAP1 PUSH4 0xFFFFFFFF AND JUMP JUMPDEST PUSH1 0x0 DUP1 DUP6 PUSH20 0xFFFFFFFFFFFFFFFFFFFFFFFFFFFFFFFFFFFFFFFF AND PUSH20 0xFFFFFFFFFFFFFFFFFFFFFFFFFFFFFFFFFFFFFFFF AND DUP2 MSTORE PUSH1 0x20 ADD SWAP1 DUP2 MSTORE PUSH1 0x20 ADD PUSH1 0x0 KECCAK256 DUP2 SWAP1 SSTORE POP PUSH2 0x9C9 DUP3 PUSH1 0x2 PUSH1 0x0 DUP8 PUSH20 0xFFFFFFFFFFFFFFFFFFFFFFFFFFFFFFFFFFFFFFFF AND PUSH20 0xFFFFFFFFFFFFFFFFFFFFFFFFFFFFFFFFFFFFFFFF AND DUP2 MSTORE PUSH1 0x20 ADD SWAP1 DUP2 MSTORE PUSH1 0x20 ADD PUSH1 0x0 KECCAK256 PUSH1 0x0 CALLER PUSH20 0xFFFFFFFFFFFFFFFFFFFFFFFFFFFFFFFFFFFFFFFF AND PUSH20 0xFFFFFFFFFFFFFFFFFFFFFFFFFFFFFFFFFFFFFFFF AND DUP2 MSTORE PUSH1 0x20 ADD SWAP1 DUP2 MSTORE PUSH1 0x20 ADD PUSH1 0x0 KECCAK256 SLOAD PUSH2 0x13EC SWAP1 SWAP2 SWAP1 PUSH4 0xFFFFFFFF AND JUMP JUMPDEST PUSH1 0x2 PUSH1 0x0 DUP7 PUSH20 0xFFFFFFFFFFFFFFFFFFFFFFFFFFFFFFFFFFFFFFFF AND PUSH20 0xFFFFFFFFFFFFFFFFFFFFFFFFFFFFFFFFFFFFFFFF AND DUP2 MSTORE PUSH1 0x20 ADD SWAP1 DUP2 MSTORE PUSH1 0x20 ADD PUSH1 0x0 KECCAK256 PUSH1 0x0 CALLER PUSH20 0xFFFFFFFFFFFFFFFFFFFFFFFFFFFFFFFFFFFFFFFF AND PUSH20 0xFFFFFFFFFFFFFFFFFFFFFFFFFFFFFFFFFFFFFFFF AND DUP2 MSTORE PUSH1 0x20 ADD SWAP1 DUP2 MSTORE PUSH1 0x20 ADD PUSH1 0x0 KECCAK256 DUP2 SWAP1 SSTORE POP DUP3 PUSH20 0xFFFFFFFFFFFFFFFFFFFFFFFFFFFFFFFFFFFFFFFF AND DUP5 PUSH20 0xFFFFFFFFFFFFFFFFFFFFFFFFFFFFFFFFFFFFFFFF AND PUSH32 0xDDF252AD1BE2C89B69C2B068FC378DAA952BA7F163C4A11628F55A4DF523B3EF DUP5 PUSH1 0x40 MLOAD DUP1 DUP3 DUP2 MSTORE PUSH1 0x20 ADD SWAP2 POP POP PUSH1 0x40 MLOAD DUP1 SWAP2 SUB SWAP1 LOG3 PUSH1 0x1 SWAP1 POP SWAP4 SWAP3 POP POP POP JUMP JUMPDEST PUSH1 0x6 SLOAD DUP2 JUMP JUMPDEST PUSH1 0x5 SLOAD DUP2 JUMP JUMPDEST PUSH1 0x0 DUP1 PUSH1 0x2 PUSH1 0x0 CALLER PUSH20 0xFFFFFFFFFFFFFFFFFFFFFFFFFFFFFFFFFFFFFFFF AND PUSH20 0xFFFFFFFFFFFFFFFFFFFFFFFFFFFFFFFFFFFFFFFF AND DUP2 MSTORE PUSH1 0x20 ADD SWAP1 DUP2 MSTORE PUSH1 0x20 ADD PUSH1 0x0 KECCAK256 PUSH1 0x0 DUP6 PUSH20 0xFFFFFFFFFFFFFFFFFFFFFFFFFFFFFFFFFFFFFFFF AND PUSH20 0xFFFFFFFFFFFFFFFFFFFFFFFFFFFFFFFFFFFFFFFF AND DUP2 MSTORE PUSH1 0x20 ADD SWAP1 DUP2 MSTORE PUSH1 0x20 ADD PUSH1 0x0 KECCAK256 SLOAD SWAP1 POP DUP1 DUP4 GT ISZERO PUSH2 0xBD6 JUMPI PUSH1 0x0 PUSH1 0x2 PUSH1 0x0 CALLER PUSH20 0xFFFFFFFFFFFFFFFFFFFFFFFFFFFFFFFFFFFFFFFF AND PUSH20 0xFFFFFFFFFFFFFFFFFFFFFFFFFFFFFFFFFFFFFFFF AND DUP2 MSTORE PUSH1 0x20 ADD SWAP1 DUP2 MSTORE PUSH1 0x20 ADD PUSH1 0x0 KECCAK256 PUSH1 0x0 DUP7 PUSH20 0xFFFFFFFFFFFFFFFFFFFFFFFFFFFFFFFFFFFFFFFF AND PUSH20 0xFFFFFFFFFFFFFFFFFFFFFFFFFFFFFFFFFFFFFFFF AND DUP2 MSTORE PUSH1 0x20 ADD SWAP1 DUP2 MSTORE PUSH1 0x20 ADD PUSH1 0x0 KECCAK256 DUP2 SWAP1 SSTORE POP PUSH2 0xC6A JUMP JUMPDEST PUSH2 0xBE9 DUP4 DUP3 PUSH2 0x13EC SWAP1 SWAP2 SWAP1 PUSH4 0xFFFFFFFF AND JUMP JUMPDEST PUSH1 0x2 PUSH1 0x0 CALLER PUSH20 0xFFFFFFFFFFFFFFFFFFFFFFFFFFFFFFFFFFFFFFFF AND PUSH20 0xFFFFFFFFFFFFFFFFFFFFFFFFFFFFFFFFFFFFFFFF AND DUP2 MSTORE PUSH1 0x20 ADD SWAP1 DUP2 MSTORE PUSH1 0x20 ADD PUSH1 0x0 KECCAK256 PUSH1 0x0 DUP7 PUSH20 0xFFFFFFFFFFFFFFFFFFFFFFFFFFFFFFFFFFFFFFFF AND PUSH20 0xFFFFFFFFFFFFFFFFFFFFFFFFFFFFFFFFFFFFFFFF AND DUP2 MSTORE PUSH1 0x20 ADD SWAP1 DUP2 MSTORE PUSH1 0x20 ADD PUSH1 0x0 KECCAK256 DUP2 SWAP1 SSTORE POP JUMPDEST DUP4 PUSH20 0xFFFFFFFFFFFFFFFFFFFFFFFFFFFFFFFFFFFFFFFF AND CALLER PUSH20 0xFFFFFFFFFFFFFFFFFFFFFFFFFFFFFFFFFFFFFFFF AND PUSH32 0x8C5BE1E5EBEC7D5BD14F71427D1E84F3DD0314C0F7B2291E5B200AC8C7C3B925 PUSH1 0x2 PUSH1 0x0 CALLER PUSH20 0xFFFFFFFFFFFFFFFFFFFFFFFFFFFFFFFFFFFFFFFF AND PUSH20 0xFFFFFFFFFFFFFFFFFFFFFFFFFFFFFFFFFFFFFFFF AND DUP2 MSTORE PUSH1 0x20 ADD SWAP1 DUP2 MSTORE PUSH1 0x20 ADD PUSH1 0x0 KECCAK256 PUSH1 0x0 DUP9 PUSH20 0xFFFFFFFFFFFFFFFFFFFFFFFFFFFFFFFFFFFFFFFF AND PUSH20 0xFFFFFFFFFFFFFFFFFFFFFFFFFFFFFFFFFFFFFFFF AND DUP2 MSTORE PUSH1 0x20 ADD SWAP1 DUP2 MSTORE PUSH1 0x20 ADD PUSH1 0x0 KECCAK256 SLOAD PUSH1 0x40 MLOAD DUP1 DUP3 DUP2 MSTORE PUSH1 0x20 ADD SWAP2 POP POP PUSH1 0x40 MLOAD DUP1 SWAP2 SUB SWAP1 LOG3 PUSH1 0x1 SWAP2 POP POP SWAP3 SWAP2 POP POP JUMP JUMPDEST PUSH1 0x0 DUP1 PUSH1 0x0 DUP4 PUSH20 0xFFFFFFFFFFFFFFFFFFFFFFFFFFFFFFFFFFFFFFFF AND PUSH20 0xFFFFFFFFFFFFFFFFFFFFFFFFFFFFFFFFFFFFFFFF AND DUP2 MSTORE PUSH1 0x20 ADD SWAP1 DUP2 MSTORE PUSH1 0x20 ADD PUSH1 0x0 KECCAK256 SLOAD SWAP1 POP SWAP2 SWAP1 POP JUMP JUMPDEST PUSH1 0x4 DUP1 SLOAD PUSH1 0x1 DUP2 PUSH1 0x1 AND ISZERO PUSH2 0x100 MUL SUB AND PUSH1 0x2 SWAP1 DIV DUP1 PUSH1 0x1F ADD PUSH1 0x20 DUP1 SWAP2 DIV MUL PUSH1 0x20 ADD PUSH1 0x40 MLOAD SWAP1 DUP2 ADD PUSH1 0x40 MSTORE DUP1 SWAP3 SWAP2 SWAP1 DUP2 DUP2 MSTORE PUSH1 0x20 ADD DUP3 DUP1 SLOAD PUSH1 0x1 DUP2 PUSH1 0x1 AND ISZERO PUSH2 0x100 MUL SUB AND PUSH1 0x2 SWAP1 DIV DUP1 ISZERO PUSH2 0xE34 JUMPI DUP1 PUSH1 0x1F LT PUSH2 0xE09 JUMPI PUSH2 0x100 DUP1 DUP4 SLOAD DIV MUL DUP4 MSTORE SWAP2 PUSH1 0x20 ADD SWAP2 PUSH2 0xE34 JUMP JUMPDEST DUP3 ADD SWAP2 SWAP1 PUSH1 0x0 MSTORE PUSH1 0x20 PUSH1 0x0 KECCAK256 SWAP1 JUMPDEST DUP2 SLOAD DUP2 MSTORE SWAP1 PUSH1 0x1 ADD SWAP1 PUSH1 0x20 ADD DUP1 DUP4 GT PUSH2 0xE17 JUMPI DUP3 SWAP1 SUB PUSH1 0x1F AND DUP3 ADD SWAP2 JUMPDEST POP POP POP POP POP DUP2 JUMP JUMPDEST PUSH1 0x0 DUP1 PUSH20 0xFFFFFFFFFFFFFFFFFFFFFFFFFFFFFFFFFFFFFFFF AND DUP4 PUSH20 0xFFFFFFFFFFFFFFFFFFFFFFFFFFFFFFFFFFFFFFFF AND EQ ISZERO ISZERO ISZERO PUSH2 0xE79 JUMPI PUSH1 0x0 DUP1 REVERT JUMPDEST PUSH1 0x0 DUP1 CALLER PUSH20 0xFFFFFFFFFFFFFFFFFFFFFFFFFFFFFFFFFFFFFFFF AND PUSH20 0xFFFFFFFFFFFFFFFFFFFFFFFFFFFFFFFFFFFFFFFF AND DUP2 MSTORE PUSH1 0x20 ADD SWAP1 DUP2 MSTORE PUSH1 0x20 ADD PUSH1 0x0 KECCAK256 SLOAD DUP3 GT ISZERO ISZERO ISZERO PUSH2 0xEC6 JUMPI PUSH1 0x0 DUP1 REVERT JUMPDEST PUSH2 0xF17 DUP3 PUSH1 0x0 DUP1 CALLER PUSH20 0xFFFFFFFFFFFFFFFFFFFFFFFFFFFFFFFFFFFFFFFF AND PUSH20 0xFFFFFFFFFFFFFFFFFFFFFFFFFFFFFFFFFFFFFFFF AND DUP2 MSTORE PUSH1 0x20 ADD SWAP1 DUP2 MSTORE PUSH1 0x20 ADD PUSH1 0x0 KECCAK256 SLOAD PUSH2 0x13EC SWAP1 SWAP2 SWAP1 PUSH4 0xFFFFFFFF AND JUMP JUMPDEST PUSH1 0x0 DUP1 CALLER PUSH20 0xFFFFFFFFFFFFFFFFFFFFFFFFFFFFFFFFFFFFFFFF AND PUSH20 0xFFFFFFFFFFFFFFFFFFFFFFFFFFFFFFFFFFFFFFFF AND DUP2 MSTORE PUSH1 0x20 ADD SWAP1 DUP2 MSTORE PUSH1 0x20 ADD PUSH1 0x0 KECCAK256 DUP2 SWAP1 SSTORE POP PUSH2 0xFAA DUP3 PUSH1 0x0 DUP1 DUP7 PUSH20 0xFFFFFFFFFFFFFFFFFFFFFFFFFFFFFFFFFFFFFFFF AND PUSH20 0xFFFFFFFFFFFFFFFFFFFFFFFFFFFFFFFFFFFFFFFF AND DUP2 MSTORE PUSH1 0x20 ADD SWAP1 DUP2 MSTORE PUSH1 0x20 ADD PUSH1 0x0 KECCAK256 SLOAD PUSH2 0x1405 SWAP1 SWAP2 SWAP1 PUSH4 0xFFFFFFFF AND JUMP JUMPDEST PUSH1 0x0 DUP1 DUP6 PUSH20 0xFFFFFFFFFFFFFFFFFFFFFFFFFFFFFFFFFFFFFFFF AND PUSH20 0xFFFFFFFFFFFFFFFFFFFFFFFFFFFFFFFFFFFFFFFF AND DUP2 MSTORE PUSH1 0x20 ADD SWAP1 DUP2 MSTORE PUSH1 0x20 ADD PUSH1 0x0 KECCAK256 DUP2 SWAP1 SSTORE POP DUP3 PUSH20 0xFFFFFFFFFFFFFFFFFFFFFFFFFFFFFFFFFFFFFFFF AND CALLER PUSH20 0xFFFFFFFFFFFFFFFFFFFFFFFFFFFFFFFFFFFFFFFF AND PUSH32 0xDDF252AD1BE2C89B69C2B068FC378DAA952BA7F163C4A11628F55A4DF523B3EF DUP5 PUSH1 0x40 MLOAD DUP1 DUP3 DUP2 MSTORE PUSH1 0x20 ADD SWAP2 POP POP PUSH1 0x40 MLOAD DUP1 SWAP2 SUB SWAP1 LOG3 PUSH1 0x1 SWAP1 POP SWAP3 SWAP2 POP POP JUMP JUMPDEST PUSH1 0x0 PUSH2 0x10EC DUP3 PUSH1 0x2 PUSH1 0x0 CALLER PUSH20 0xFFFFFFFFFFFFFFFFFFFFFFFFFFFFFFFFFFFFFFFF AND PUSH20 0xFFFFFFFFFFFFFFFFFFFFFFFFFFFFFFFFFFFFFFFF AND DUP2 MSTORE PUSH1 0x20 ADD SWAP1 DUP2 MSTORE PUSH1 0x20 ADD PUSH1 0x0 KECCAK256 PUSH1 0x0 DUP7 PUSH20 0xFFFFFFFFFFFFFFFFFFFFFFFFFFFFFFFFFFFFFFFF AND PUSH20 0xFFFFFFFFFFFFFFFFFFFFFFFFFFFFFFFFFFFFFFFF AND DUP2 MSTORE PUSH1 0x20 ADD SWAP1 DUP2 MSTORE PUSH1 0x20 ADD PUSH1 0x0 KECCAK256 SLOAD PUSH2 0x1405 SWAP1 SWAP2 SWAP1 PUSH4 0xFFFFFFFF AND JUMP JUMPDEST PUSH1 0x2 PUSH1 0x0 CALLER PUSH20 0xFFFFFFFFFFFFFFFFFFFFFFFFFFFFFFFFFFFFFFFF AND PUSH20 0xFFFFFFFFFFFFFFFFFFFFFFFFFFFFFFFFFFFFFFFF AND DUP2 MSTORE PUSH1 0x20 ADD SWAP1 DUP2 MSTORE PUSH1 0x20 ADD PUSH1 0x0 KECCAK256 PUSH1 0x0 DUP6 PUSH20 0xFFFFFFFFFFFFFFFFFFFFFFFFFFFFFFFFFFFFFFFF AND PUSH20 0xFFFFFFFFFFFFFFFFFFFFFFFFFFFFFFFFFFFFFFFF AND DUP2 MSTORE PUSH1 0x20 ADD SWAP1 DUP2 MSTORE PUSH1 0x20 ADD PUSH1 0x0 KECCAK256 DUP2 SWAP1 SSTORE POP DUP3 PUSH20 0xFFFFFFFFFFFFFFFFFFFFFFFFFFFFFFFFFFFFFFFF AND CALLER PUSH20 0xFFFFFFFFFFFFFFFFFFFFFFFFFFFFFFFFFFFFFFFF AND PUSH32 0x8C5BE1E5EBEC7D5BD14F71427D1E84F3DD0314C0F7B2291E5B200AC8C7C3B925 PUSH1 0x2 PUSH1 0x0 CALLER PUSH20 0xFFFFFFFFFFFFFFFFFFFFFFFFFFFFFFFFFFFFFFFF AND PUSH20 0xFFFFFFFFFFFFFFFFFFFFFFFFFFFFFFFFFFFFFFFF AND DUP2 MSTORE PUSH1 0x20 ADD SWAP1 DUP2 MSTORE PUSH1 0x20 ADD PUSH1 0x0 KECCAK256 PUSH1 0x0 DUP8 PUSH20 0xFFFFFFFFFFFFFFFFFFFFFFFFFFFFFFFFFFFFFFFF AND PUSH20 0xFFFFFFFFFFFFFFFFFFFFFFFFFFFFFFFFFFFFFFFF AND DUP2 MSTORE PUSH1 0x20 ADD SWAP1 DUP2 MSTORE PUSH1 0x20 ADD PUSH1 0x0 KECCAK256 SLOAD PUSH1 0x40 MLOAD DUP1 DUP3 DUP2 MSTORE PUSH1 0x20 ADD SWAP2 POP POP PUSH1 0x40 MLOAD DUP1 SWAP2 SUB SWAP1 LOG3 PUSH1 0x1 SWAP1 POP SWAP3 SWAP2 POP POP JUMP JUMPDEST PUSH1 0x0 PUSH1 0x2 PUSH1 0x0 DUP5 PUSH20 0xFFFFFFFFFFFFFFFFFFFFFFFFFFFFFFFFFFFFFFFF AND PUSH20 0xFFFFFFFFFFFFFFFFFFFFFFFFFFFFFFFFFFFFFFFF AND DUP2 MSTORE PUSH1 0x20 ADD SWAP1 DUP2 MSTORE PUSH1 0x20 ADD PUSH1 0x0 KECCAK256 PUSH1 0x0 DUP4 PUSH20 0xFFFFFFFFFFFFFFFFFFFFFFFFFFFFFFFFFFFFFFFF AND PUSH20 0xFFFFFFFFFFFFFFFFFFFFFFFFFFFFFFFFFFFFFFFF AND DUP2 MSTORE PUSH1 0x20 ADD SWAP1 DUP2 MSTORE PUSH1 0x20 ADD PUSH1 0x0 KECCAK256 SLOAD SWAP1 POP SWAP3 SWAP2 POP POP JUMP JUMPDEST PUSH1 0x0 PUSH2 0x12E8 PUSH2 0x1423 JUMP JUMPDEST SWAP1 POP PUSH1 0x1 DUP2 EQ ISZERO PUSH2 0x1370 JUMPI PUSH32 0x50C1333027FF7C6D25A47998F498B8D06B7B2D02E5408EF0A5B5F42D22E8D8D9 CALLER DUP3 PUSH1 0x1 PUSH1 0x40 MLOAD DUP1 DUP5 PUSH20 0xFFFFFFFFFFFFFFFFFFFFFFFFFFFFFFFFFFFFFFFF AND PUSH20 0xFFFFFFFFFFFFFFFFFFFFFFFFFFFFFFFFFFFFFFFF AND DUP2 MSTORE PUSH1 0x20 ADD DUP4 DUP2 MSTORE PUSH1 0x20 ADD DUP3 ISZERO ISZERO ISZERO ISZERO DUP2 MSTORE PUSH1 0x20 ADD SWAP4 POP POP POP POP PUSH1 0x40 MLOAD DUP1 SWAP2 SUB SWAP1 LOG1 PUSH2 0x13E9 JUMP JUMPDEST PUSH32 0x50C1333027FF7C6D25A47998F498B8D06B7B2D02E5408EF0A5B5F42D22E8D8D9 CALLER DUP3 PUSH1 0x0 PUSH1 0x40 MLOAD DUP1 DUP5 PUSH20 0xFFFFFFFFFFFFFFFFFFFFFFFFFFFFFFFFFFFFFFFF AND PUSH20 0xFFFFFFFFFFFFFFFFFFFFFFFFFFFFFFFFFFFFFFFF AND DUP2 MSTORE PUSH1 0x20 ADD DUP4 DUP2 MSTORE PUSH1 0x20 ADD DUP3 ISZERO ISZERO ISZERO ISZERO DUP2 MSTORE PUSH1 0x20 ADD SWAP4 POP POP POP POP PUSH1 0x40 MLOAD DUP1 SWAP2 SUB SWAP1 LOG1 JUMPDEST POP JUMP JUMPDEST PUSH1 0x0 DUP3 DUP3 GT ISZERO ISZERO ISZERO PUSH2 0x13FA JUMPI INVALID JUMPDEST DUP2 DUP4 SUB SWAP1 POP SWAP3 SWAP2 POP POP JUMP JUMPDEST PUSH1 0x0 DUP1 DUP3 DUP5 ADD SWAP1 POP DUP4 DUP2 LT ISZERO ISZERO ISZERO PUSH2 0x1419 JUMPI INVALID JUMPDEST DUP1 SWAP2 POP POP SWAP3 SWAP2 POP POP JUMP JUMPDEST PUSH1 0x0 PUSH1 0x6 DIFFICULTY TIMESTAMP TIMESTAMP DIFFICULTY ADD PUSH1 0x40 MLOAD PUSH1 0x20 ADD DUP1 DUP5 DUP2 MSTORE PUSH1 0x20 ADD DUP4 DUP2 MSTORE PUSH1 0x20 ADD DUP3 DUP2 MSTORE PUSH1 0x20 ADD SWAP4 POP POP POP POP PUSH1 0x40 MLOAD PUSH1 0x20 DUP2 DUP4 SUB SUB DUP2 MSTORE SWAP1 PUSH1 0x40 MSTORE PUSH1 0x40 MLOAD DUP1 DUP3 DUP1 MLOAD SWAP1 PUSH1 0x20 ADD SWAP1 DUP1 DUP4 DUP4 JUMPDEST PUSH1 0x20 DUP4 LT ISZERO ISZERO PUSH2 0x148E JUMPI DUP1 MLOAD DUP3 MSTORE PUSH1 0x20 DUP3 ADD SWAP2 POP PUSH1 0x20 DUP2 ADD SWAP1 POP PUSH1 0x20 DUP4 SUB SWAP3 POP PUSH2 0x1469 JUMP JUMPDEST PUSH1 0x1 DUP4 PUSH1 0x20 SUB PUSH2 0x100 EXP SUB DUP1 NOT DUP3 MLOAD AND DUP2 DUP5 MLOAD AND DUP1 DUP3 OR DUP6 MSTORE POP POP POP POP POP POP SWAP1 POP ADD SWAP2 POP POP PUSH1 0x40 MLOAD DUP1 SWAP2 SUB SWAP1 KECCAK256 PUSH1 0x1 SWAP1 DIV DUP2 ISZERO ISZERO PUSH2 0x14C8 JUMPI INVALID JUMPDEST MOD SWAP1 POP SWAP1 JUMP STOP LOG1 PUSH6 0x627A7A723058 KECCAK256 CALL 0xc2 DUP14 SWAP16 0x48 0xe4 EXP BALANCE 0xd8 0x2b NOT 0xbd 0xc0 RETURNDATASIZE 0xe8 0x27 NUMBER PUSH13 0x1EC465B65F9526AED6AFFDDA53 DUP7 STOP 0x29 "
				},
				"gasEstimates": {
					"creation": {
						"codeDepositCost": "1074000",
						"executionCost": "infinite",
						"totalCost": "infinite"
					},
					"external": {
						"INITIAL_SUPPLY()": "482",
						"PlayGame()": "infinite",
						"allowance(address,address)": "926",
						"approve(address,uint256)": "22353",
						"balanceOf(address)": "713",
						"decimals()": "504",
						"decreaseApproval(address,uint256)": "infinite",
						"increaseApproval(address,uint256)": "infinite",
						"name()": "infinite",
						"symbol()": "infinite",
						"totalSupply()": "438",
						"transfer(address,uint256)": "infinite",
						"transferFrom(address,address,uint256)": "infinite"
					},
					"internal": {
						"random()": "infinite"
					}
				},
				"methodIdentifiers": {
					"INITIAL_SUPPLY()": "2ff2e9dc",
					"PlayGame()": "ff776b9c",
					"allowance(address,address)": "dd62ed3e",
					"approve(address,uint256)": "095ea7b3",
					"balanceOf(address)": "70a08231",
					"decimals()": "313ce567",
					"decreaseApproval(address,uint256)": "66188463",
					"increaseApproval(address,uint256)": "d73dd623",
					"name()": "06fdde03",
					"symbol()": "95d89b41",
					"totalSupply()": "18160ddd",
					"transfer(address,uint256)": "a9059cbb",
					"transferFrom(address,address,uint256)": "23b872dd"
				}
			},
			"userdoc": {
				"methods": {}
			}
		}
	}
}